{
  "contractName": "SPSLS",
  "abi": [
    {
      "constant": true,
      "inputs": [],
      "name": "round_no",
      "outputs": [
        {
          "internalType": "uint256",
          "name": "",
          "type": "uint256"
        }
      ],
      "payable": false,
      "stateMutability": "view",
      "type": "function"
    },
    {
      "constant": true,
      "inputs": [],
      "name": "getFinalResult",
      "outputs": [
        {
          "internalType": "string",
          "name": "",
          "type": "string"
        }
      ],
      "payable": false,
      "stateMutability": "view",
      "type": "function"
    },
    {
      "constant": true,
      "inputs": [],
      "name": "player2",
      "outputs": [
        {
          "internalType": "address payable",
          "name": "",
          "type": "address"
        }
      ],
      "payable": false,
      "stateMutability": "view",
      "type": "function"
    },
    {
      "constant": true,
      "inputs": [],
      "name": "player2HandHash",
      "outputs": [
        {
          "internalType": "bytes32",
          "name": "",
          "type": "bytes32"
        }
      ],
      "payable": false,
      "stateMutability": "view",
      "type": "function"
    },
    {
      "constant": true,
      "inputs": [],
      "name": "owner",
      "outputs": [
        {
          "internalType": "address payable",
          "name": "",
          "type": "address"
        }
      ],
      "payable": false,
      "stateMutability": "view",
      "type": "function"
    },
    {
      "constant": true,
      "inputs": [],
      "name": "player1HandHash",
      "outputs": [
        {
          "internalType": "bytes32",
          "name": "",
          "type": "bytes32"
        }
      ],
      "payable": false,
      "stateMutability": "view",
      "type": "function"
    },
    {
      "constant": true,
      "inputs": [],
      "name": "player1",
      "outputs": [
        {
          "internalType": "address payable",
          "name": "",
          "type": "address"
        }
      ],
      "payable": false,
      "stateMutability": "view",
      "type": "function"
    },
    {
      "inputs": [],
      "payable": true,
      "stateMutability": "payable",
      "type": "constructor"
    },
    {
      "payable": true,
      "stateMutability": "payable",
      "type": "fallback"
    },
    {
      "constant": false,
      "inputs": [],
      "name": "donateToHouse",
      "outputs": [],
      "payable": true,
      "stateMutability": "payable",
      "type": "function"
    },
    {
      "constant": true,
      "inputs": [],
      "name": "etherInHouse",
      "outputs": [
        {
          "internalType": "uint256",
          "name": "",
          "type": "uint256"
        }
      ],
      "payable": false,
      "stateMutability": "view",
      "type": "function"
    },
    {
      "constant": false,
      "inputs": [],
      "name": "PlayWithBot",
      "outputs": [],
      "payable": true,
      "stateMutability": "payable",
      "type": "function"
    },
    {
      "constant": false,
      "inputs": [],
      "name": "PlayWithPlayer",
      "outputs": [],
      "payable": true,
      "stateMutability": "payable",
      "type": "function"
    },
    {
      "constant": false,
      "inputs": [
        {
          "internalType": "bytes32",
          "name": "_hash",
          "type": "bytes32"
        }
      ],
      "name": "commit",
      "outputs": [],
      "payable": true,
      "stateMutability": "payable",
      "type": "function"
    },
    {
      "constant": false,
      "inputs": [
        {
          "internalType": "string",
          "name": "_hand",
          "type": "string"
        },
        {
          "internalType": "string",
          "name": "_nonce",
          "type": "string"
        }
      ],
      "name": "reveal",
      "outputs": [],
      "payable": false,
      "stateMutability": "nonpayable",
      "type": "function"
    },
    {
      "constant": false,
      "inputs": [],
      "name": "roundResult",
      "outputs": [],
      "payable": false,
      "stateMutability": "nonpayable",
      "type": "function"
    },
    {
      "constant": true,
      "inputs": [],
      "name": "getRoundResult",
      "outputs": [
        {
          "internalType": "string",
          "name": "",
          "type": "string"
        }
      ],
      "payable": false,
      "stateMutability": "view",
      "type": "function"
    }
  ],
  "bytecode": "0x6080604052670de0b6b3a7640000600b557fffffffffffffffffffffffffffffffffffffffffffffffffffffffffffffffff600e5560405180602001604052806000815250600f90805190602001906200005b92919062000e45565b5033600360006101000a81548173ffffffffffffffffffffffffffffffffffffffff021916908373ffffffffffffffffffffffffffffffffffffffff1602179055506000600d60006101000a81548160ff021916908360000b60ff1602179055506002600a819055506000600c81905550600060048190555060006005819055506000600160006101000a81548173ffffffffffffffffffffffffffffffffffffffff021916908373ffffffffffffffffffffffffffffffffffffffff1602179055506000600260006101000a81548173ffffffffffffffffffffffffffffffffffffffff021916908373ffffffffffffffffffffffffffffffffffffffff16021790555060405180602001604052806000815250600690805190602001906200018792919062000e45565b506040518060200160405280600081525060079080519060200190620001af92919062000e45565b506000801b6008819055506000801b60098190555060008060405180807f30000000000000000000000000000000000000000000000000000000000000008152506001019050908152602001604051809103902060405180807f300000000000000000000000000000000000000000000000000000000000000081525060010190509081526020016040518091039020819055506002600060405180807f30000000000000000000000000000000000000000000000000000000000000008152506001019050908152602001604051809103902060405180807f310000000000000000000000000000000000000000000000000000000000000081525060010190509081526020016040518091039020819055506001600060405180807f30000000000000000000000000000000000000000000000000000000000000008152506001019050908152602001604051809103902060405180807f320000000000000000000000000000000000000000000000000000000000000081525060010190509081526020016040518091039020819055506001600060405180807f30000000000000000000000000000000000000000000000000000000000000008152506001019050908152602001604051809103902060405180807f330000000000000000000000000000000000000000000000000000000000000081525060010190509081526020016040518091039020819055506002600060405180807f30000000000000000000000000000000000000000000000000000000000000008152506001019050908152602001604051809103902060405180807f340000000000000000000000000000000000000000000000000000000000000081525060010190509081526020016040518091039020819055506001600060405180807f31000000000000000000000000000000000000000000000000000000000000008152506001019050908152602001604051809103902060405180807f3000000000000000000000000000000000000000000000000000000000000000815250600101905090815260200160405180910390208190555060008060405180807f31000000000000000000000000000000000000000000000000000000000000008152506001019050908152602001604051809103902060405180807f310000000000000000000000000000000000000000000000000000000000000081525060010190509081526020016040518091039020819055506002600060405180807f31000000000000000000000000000000000000000000000000000000000000008152506001019050908152602001604051809103902060405180807f320000000000000000000000000000000000000000000000000000000000000081525060010190509081526020016040518091039020819055506002600060405180807f31000000000000000000000000000000000000000000000000000000000000008152506001019050908152602001604051809103902060405180807f330000000000000000000000000000000000000000000000000000000000000081525060010190509081526020016040518091039020819055506001600060405180807f31000000000000000000000000000000000000000000000000000000000000008152506001019050908152602001604051809103902060405180807f340000000000000000000000000000000000000000000000000000000000000081525060010190509081526020016040518091039020819055506002600060405180807f32000000000000000000000000000000000000000000000000000000000000008152506001019050908152602001604051809103902060405180807f300000000000000000000000000000000000000000000000000000000000000081525060010190509081526020016040518091039020819055506001600060405180807f32000000000000000000000000000000000000000000000000000000000000008152506001019050908152602001604051809103902060405180807f3100000000000000000000000000000000000000000000000000000000000000815250600101905090815260200160405180910390208190555060008060405180807f32000000000000000000000000000000000000000000000000000000000000008152506001019050908152602001604051809103902060405180807f320000000000000000000000000000000000000000000000000000000000000081525060010190509081526020016040518091039020819055506001600060405180807f32000000000000000000000000000000000000000000000000000000000000008152506001019050908152602001604051809103902060405180807f330000000000000000000000000000000000000000000000000000000000000081525060010190509081526020016040518091039020819055506002600060405180807f32000000000000000000000000000000000000000000000000000000000000008152506001019050908152602001604051809103902060405180807f340000000000000000000000000000000000000000000000000000000000000081525060010190509081526020016040518091039020819055506002600060405180807f33000000000000000000000000000000000000000000000000000000000000008152506001019050908152602001604051809103902060405180807f300000000000000000000000000000000000000000000000000000000000000081525060010190509081526020016040518091039020819055506001600060405180807f33000000000000000000000000000000000000000000000000000000000000008152506001019050908152602001604051809103902060405180807f310000000000000000000000000000000000000000000000000000000000000081525060010190509081526020016040518091039020819055506002600060405180807f33000000000000000000000000000000000000000000000000000000000000008152506001019050908152602001604051809103902060405180807f3200000000000000000000000000000000000000000000000000000000000000815250600101905090815260200160405180910390208190555060008060405180807f33000000000000000000000000000000000000000000000000000000000000008152506001019050908152602001604051809103902060405180807f330000000000000000000000000000000000000000000000000000000000000081525060010190509081526020016040518091039020819055506001600060405180807f33000000000000000000000000000000000000000000000000000000000000008152506001019050908152602001604051809103902060405180807f340000000000000000000000000000000000000000000000000000000000000081525060010190509081526020016040518091039020819055506001600060405180807f34000000000000000000000000000000000000000000000000000000000000008152506001019050908152602001604051809103902060405180807f300000000000000000000000000000000000000000000000000000000000000081525060010190509081526020016040518091039020819055506002600060405180807f34000000000000000000000000000000000000000000000000000000000000008152506001019050908152602001604051809103902060405180807f310000000000000000000000000000000000000000000000000000000000000081525060010190509081526020016040518091039020819055506001600060405180807f34000000000000000000000000000000000000000000000000000000000000008152506001019050908152602001604051809103902060405180807f320000000000000000000000000000000000000000000000000000000000000081525060010190509081526020016040518091039020819055506002600060405180807f34000000000000000000000000000000000000000000000000000000000000008152506001019050908152602001604051809103902060405180807f3300000000000000000000000000000000000000000000000000000000000000815250600101905090815260200160405180910390208190555060008060405180807f34000000000000000000000000000000000000000000000000000000000000008152506001019050908152602001604051809103902060405180807f3400000000000000000000000000000000000000000000000000000000000000815250600101905090815260200160405180910390208190555062000ef4565b828054600181600116156101000203166002900490600052602060002090601f016020900481019282601f1062000e8857805160ff191683800117855562000eb9565b8280016001018555821562000eb9579182015b8281111562000eb857825182559160200191906001019062000e9b565b5b50905062000ec8919062000ecc565b5090565b62000ef191905b8082111562000eed57600081600090555060010162000ed3565b5090565b90565b6126bf8062000f046000396000f3fe6080604052600436106100e85760003560e01c806394002c841161008a578063d30895e411610059578063d30895e4146104c3578063d37b73d01461051a578063f14fcbc814610545578063f3f1443f14610573576100e8565b806394002c84146103e7578063a7545a5714610477578063bed4fe09146104a2578063c3ad0027146104ac576100e8565b80635ba1b2c7116100c65780635ba1b2c7146101fc5780636648be9e1461035b5780638d11186f146103865780638da5cb5b14610390576100e8565b806309ecd0c5146100ea5780633c6e53101461011557806359a5f12d146101a5575b005b3480156100f657600080fd5b506100ff61057d565b6040518082815260200191505060405180910390f35b34801561012157600080fd5b5061012a610583565b6040518080602001828103825283818151815260200191508051906020019080838360005b8381101561016a57808201518184015260208101905061014f565b50505050905090810190601f1680156101975780820380516001836020036101000a031916815260200191505b509250505060405180910390f35b3480156101b157600080fd5b506101ba610621565b604051808273ffffffffffffffffffffffffffffffffffffffff1673ffffffffffffffffffffffffffffffffffffffff16815260200191505060405180910390f35b34801561020857600080fd5b506103596004803603604081101561021f57600080fd5b810190808035906020019064010000000081111561023c57600080fd5b82018360208201111561024e57600080fd5b8035906020019184600183028401116401000000008311171561027057600080fd5b91908080601f016020809104026020016040519081016040528093929190818152602001838380828437600081840152601f19601f820116905080830192505050505050509192919290803590602001906401000000008111156102d357600080fd5b8201836020820111156102e557600080fd5b8035906020019184600183028401116401000000008311171561030757600080fd5b91908080601f016020809104026020016040519081016040528093929190818152602001838380828437600081840152601f19601f820116905080830192505050505050509192919290505050610647565b005b34801561036757600080fd5b50610370610c1c565b6040518082815260200191505060405180910390f35b61038e610c22565b005b34801561039c57600080fd5b506103a5610c6b565b604051808273ffffffffffffffffffffffffffffffffffffffff1673ffffffffffffffffffffffffffffffffffffffff16815260200191505060405180910390f35b3480156103f357600080fd5b506103fc610c91565b6040518080602001828103825283818151815260200191508051906020019080838360005b8381101561043c578082015181840152602081019050610421565b50505050905090810190601f1680156104695780820380516001836020036101000a031916815260200191505b509250505060405180910390f35b34801561048357600080fd5b5061048c610ecd565b6040518082815260200191505060405180910390f35b6104aa610ed3565b005b3480156104b857600080fd5b506104c1611276565b005b3480156104cf57600080fd5b506104d861193a565b604051808273ffffffffffffffffffffffffffffffffffffffff1673ffffffffffffffffffffffffffffffffffffffff16815260200191505060405180910390f35b34801561052657600080fd5b5061052f611960565b6040518082815260200191505060405180910390f35b6105716004803603602081101561055b57600080fd5b810190808035906020019092919050505061197f565b005b61057b611cbd565b005b600c5481565b600f8054600181600116156101000203166002900480601f0160208091040260200160405190810160405280929190818152602001828054600181600116156101000203166002900480156106195780601f106105ee57610100808354040283529160200191610619565b820191906000526020600020905b8154815290600101906020018083116105fc57829003601f168201915b505050505081565b600260009054906101000a900473ffffffffffffffffffffffffffffffffffffffff1681565b600160009054906101000a900473ffffffffffffffffffffffffffffffffffffffff1673ffffffffffffffffffffffffffffffffffffffff163373ffffffffffffffffffffffffffffffffffffffff1614806106f05750600260009054906101000a900473ffffffffffffffffffffffffffffffffffffffff1673ffffffffffffffffffffffffffffffffffffffff163373ffffffffffffffffffffffffffffffffffffffff16145b610762576040517f08c379a000000000000000000000000000000000000000000000000000000000815260040180806020018281038252600b8152602001807f6a6f696e2066697273742100000000000000000000000000000000000000000081525060200191505060405180910390fd5b816107a2816040518060400160405280600181526020017f30000000000000000000000000000000000000000000000000000000000000008152506121bc565b806107e857506107e7816040518060400160405280600181526020017f31000000000000000000000000000000000000000000000000000000000000008152506121bc565b5b8061082e575061082d816040518060400160405280600181526020017f32000000000000000000000000000000000000000000000000000000000000008152506121bc565b5b806108745750610873816040518060400160405280600181526020017f33000000000000000000000000000000000000000000000000000000000000008152506121bc565b5b806108ba57506108b9816040518060400160405280600181526020017f34000000000000000000000000000000000000000000000000000000000000008152506121bc565b5b6108c357600080fd5b7fffffffffffffffffffffffffffffffffffffffffffffffffffffffffffffffff600d60009054906101000a900460000b60000b1461096c576000801b6008541415801561091657506000801b60095414155b61096b576040517f08c379a000000000000000000000000000000000000000000000000000000000815260040180806020018281038252603781526020018061260a6037913960400191505060405180910390fd5b5b600160009054906101000a900473ffffffffffffffffffffffffffffffffffffffff1673ffffffffffffffffffffffffffffffffffffffff163373ffffffffffffffffffffffffffffffffffffffff161415610aef577fffffffffffffffffffffffffffffffffffffffffffffffffffffffffffffffff600d60009054906101000a900460000b60000b14610a7c57600854610a0884846122ab565b14610a7b576040517f08c379a00000000000000000000000000000000000000000000000000000000081526004018080602001828103825260108152602001807f436f6d6d69742076696f6c6174696f6e0000000000000000000000000000000081525060200191505060405180910390fd5b5b8260069080519060200190610a92929190612564565b507fffffffffffffffffffffffffffffffffffffffffffffffffffffffffffffffff600d60009054906101000a900460000b60000b1415610aee57610ad7600561237a565b60079080519060200190610aec929190612564565b505b5b600260009054906101000a900473ffffffffffffffffffffffffffffffffffffffff1673ffffffffffffffffffffffffffffffffffffffff163373ffffffffffffffffffffffffffffffffffffffff161415610c17577fffffffffffffffffffffffffffffffffffffffffffffffffffffffffffffffff600d60009054906101000a900460000b60000b14610bff57600954610b8b84846122ab565b14610bfe576040517f08c379a00000000000000000000000000000000000000000000000000000000081526004018080602001828103825260108152602001807f436f6d6d69742076696f6c6174696f6e0000000000000000000000000000000081525060200191505060405180910390fd5b5b8260079080519060200190610c15929190612564565b505b505050565b60095481565b3073ffffffffffffffffffffffffffffffffffffffff166108fc349081150290604051600060405180830381858888f19350505050158015610c68573d6000803e3d6000fd5b50565b600360009054906101000a900473ffffffffffffffffffffffffffffffffffffffff1681565b60606000600e541415610cdb576040518060400160405280600481526020017f44524157000000000000000000000000000000000000000000000000000000008152509050610eca565b600160009054906101000a900473ffffffffffffffffffffffffffffffffffffffff1673ffffffffffffffffffffffffffffffffffffffff163373ffffffffffffffffffffffffffffffffffffffff161415610db6576001600e541415610d79576040518060400160405280600781526020017f594f552057494e000000000000000000000000000000000000000000000000008152509050610eca565b6040518060400160405280600881526020017f594f55204c4f53450000000000000000000000000000000000000000000000008152509050610eca565b600260009054906101000a900473ffffffffffffffffffffffffffffffffffffffff1673ffffffffffffffffffffffffffffffffffffffff163373ffffffffffffffffffffffffffffffffffffffff161415610e91576002600e541415610e54576040518060400160405280600781526020017f594f552057494e000000000000000000000000000000000000000000000000008152509050610eca565b6040518060400160405280600881526020017f594f55204c4f53450000000000000000000000000000000000000000000000008152509050610eca565b6040518060400160405280600e81526020017f4e4f542059455420504c4159454400000000000000000000000000000000000081525090505b90565b60085481565b6001600d60009054906101000a900460000b60000b1415610f5c576040517f08c379a000000000000000000000000000000000000000000000000000000000815260040180806020018281038252600d8152602001807f526f6f6d206e6f7420667265650000000000000000000000000000000000000081525060200191505060405180910390fd5b600073ffffffffffffffffffffffffffffffffffffffff16600160009054906101000a900473ffffffffffffffffffffffffffffffffffffffff1673ffffffffffffffffffffffffffffffffffffffff1614611020576040517f08c379a00000000000000000000000000000000000000000000000000000000081526004018080602001828103825260168152602001807f506c6179657273206c696d697420726561636865642e0000000000000000000081525060200191505060405180910390fd5b670de0b6b3a76400003073ffffffffffffffffffffffffffffffffffffffff16311015611098576040517f08c379a00000000000000000000000000000000000000000000000000000000081526004018080602001828103825260278152602001806126646027913960400191505060405180910390fd5b600b54341461110f576040517f08c379a000000000000000000000000000000000000000000000000000000000815260040180806020018281038252600b8152602001807f626964203120657468657200000000000000000000000000000000000000000081525060200191505060405180910390fd5b7fffffffffffffffffffffffffffffffffffffffffffffffffffffffffffffffff600e8190555060405180602001604052806000815250600f908051906020019061115b929190612564565b50600073ffffffffffffffffffffffffffffffffffffffff16600160009054906101000a900473ffffffffffffffffffffffffffffffffffffffff1673ffffffffffffffffffffffffffffffffffffffff1614156112365733600160006101000a81548173ffffffffffffffffffffffffffffffffffffffff021916908373ffffffffffffffffffffffffffffffffffffffff16021790555030600260006101000a81548173ffffffffffffffffffffffffffffffffffffffff021916908373ffffffffffffffffffffffffffffffffffffffff1602179055505b7fffffffffffffffffffffffffffffffffffffffffffffffffffffffffffffffff600d60006101000a81548160ff021916908360000b60ff160217905550565b600160009054906101000a900473ffffffffffffffffffffffffffffffffffffffff1673ffffffffffffffffffffffffffffffffffffffff163373ffffffffffffffffffffffffffffffffffffffff16148061131f5750600260009054906101000a900473ffffffffffffffffffffffffffffffffffffffff1673ffffffffffffffffffffffffffffffffffffffff163373ffffffffffffffffffffffffffffffffffffffff16145b611391576040517f08c379a000000000000000000000000000000000000000000000000000000000815260040180806020018281038252600b8152602001807f6a6f696e2066697273742100000000000000000000000000000000000000000081525060200191505060405180910390fd5b7fffffffffffffffffffffffffffffffffffffffffffffffffffffffffffffffff600e81905550600a54600c54106113c857600080fd5b600060068054600181600116156101000203166002900490501415801561140657506000600780546001816001161561010002031660029004905014155b611478576040517f08c379a000000000000000000000000000000000000000000000000000000000815260040180806020018281038252601c8152602001807f426f746820706c617965727320686176656e277420706c617965642e0000000081525060200191505060405180910390fd5b600c600081548092919060010191905055506000600660405180828054600181600116156101000203166002900480156114e95780601f106114c75761010080835404028352918201916114e9565b820191906000526020600020905b8154815290600101906020018083116114d5575b50509150509081526020016040518091039020600760405180828054600181600116156101000203166002900480156115595780601f10611537576101008083540402835291820191611559565b820191906000526020600020905b815481529060010190602001808311611545575b5050915050908152602001604051809103902054600e819055506001600e541415611595576004600081548092919060010191905055506115b4565b6002600e5414156115b3576005600081548092919060010191905055505b5b60405180602001604052806000815250600690805190602001906115d9929190612564565b5060405180602001604052806000815250600790805190602001906115ff929190612564565b506000801b6008819055506000801b600981905550600a54600c5414156119385760055460045414156116eb57600360009054906101000a900473ffffffffffffffffffffffffffffffffffffffff1673ffffffffffffffffffffffffffffffffffffffff166108fc600b546002029081150290604051600060405180830381858888f19350505050158015611699573d6000803e3d6000fd5b506040518060400160405280600481526020017f4472617700000000000000000000000000000000000000000000000000000000815250600f90805190602001906116e5929190612564565b5061189b565b60055460045411156117b657600160009054906101000a900473ffffffffffffffffffffffffffffffffffffffff1673ffffffffffffffffffffffffffffffffffffffff166108fc600b546002029081150290604051600060405180830381858888f19350505050158015611764573d6000803e3d6000fd5b506040518060400160405280600c81526020017f506c61796572312077696e730000000000000000000000000000000000000000815250600f90805190602001906117b0929190612564565b5061189a565b6005546004541015611899576001600d60009054906101000a900460000b60000b141561184c57600260009054906101000a900473ffffffffffffffffffffffffffffffffffffffff1673ffffffffffffffffffffffffffffffffffffffff166108fc600b546002029081150290604051600060405180830381858888f1935050505015801561184a573d6000803e3d6000fd5b505b6040518060400160405280600c81526020017f506c61796572322077696e730000000000000000000000000000000000000000815250600f9080519060200190611897929190612564565b505b5b5b600060048190555060006005819055506000600160006101000a81548173ffffffffffffffffffffffffffffffffffffffff021916908373ffffffffffffffffffffffffffffffffffffffff1602179055506000600260006101000a81548173ffffffffffffffffffffffffffffffffffffffff021916908373ffffffffffffffffffffffffffffffffffffffff1602179055506000600c819055505b565b600160009054906101000a900473ffffffffffffffffffffffffffffffffffffffff1681565b60003073ffffffffffffffffffffffffffffffffffffffff1631905090565b600160009054906101000a900473ffffffffffffffffffffffffffffffffffffffff1673ffffffffffffffffffffffffffffffffffffffff163373ffffffffffffffffffffffffffffffffffffffff161480611a285750600260009054906101000a900473ffffffffffffffffffffffffffffffffffffffff1673ffffffffffffffffffffffffffffffffffffffff163373ffffffffffffffffffffffffffffffffffffffff16145b611a9a576040517f08c379a000000000000000000000000000000000000000000000000000000000815260040180806020018281038252600b8152602001807f6a6f696e2066697273742100000000000000000000000000000000000000000081525060200191505060405180910390fd5b6001600d60009054906101000a900460000b60000b14611b05576040517f08c379a00000000000000000000000000000000000000000000000000000000081526004018080602001828103825260238152602001806126416023913960400191505060405180910390fd5b600160009054906101000a900473ffffffffffffffffffffffffffffffffffffffff1673ffffffffffffffffffffffffffffffffffffffff163373ffffffffffffffffffffffffffffffffffffffff161415611be1576000801b60085414611bd5576040517f08c379a00000000000000000000000000000000000000000000000000000000081526004018080602001828103825260138152602001807f43616e6e6f7420636f6d6d69742074776963650000000000000000000000000081525060200191505060405180910390fd5b80600881905550611cba565b600260009054906101000a900473ffffffffffffffffffffffffffffffffffffffff1673ffffffffffffffffffffffffffffffffffffffff163373ffffffffffffffffffffffffffffffffffffffff161415611cb9576000801b60095414611cb1576040517f08c379a00000000000000000000000000000000000000000000000000000000081526004018080602001828103825260138152602001807f43616e6e6f7420636f6d6d69742074776963650000000000000000000000000081525060200191505060405180910390fd5b806009819055505b5b50565b7fffffffffffffffffffffffffffffffffffffffffffffffffffffffffffffffff600d60009054906101000a900460000b60000b1415611d65576040517f08c379a000000000000000000000000000000000000000000000000000000000815260040180806020018281038252600d8152602001807f526f6f6d206e6f7420667265650000000000000000000000000000000000000081525060200191505060405180910390fd5b600160009054906101000a900473ffffffffffffffffffffffffffffffffffffffff1673ffffffffffffffffffffffffffffffffffffffff163373ffffffffffffffffffffffffffffffffffffffff1614158015611e115750600260009054906101000a900473ffffffffffffffffffffffffffffffffffffffff1673ffffffffffffffffffffffffffffffffffffffff163373ffffffffffffffffffffffffffffffffffffffff1614155b611e83576040517f08c379a000000000000000000000000000000000000000000000000000000000815260040180806020018281038252601e8152602001807f596f752063616e277420706c617920617320626f746820706c6179657273000081525060200191505060405180910390fd5b600073ffffffffffffffffffffffffffffffffffffffff16600160009054906101000a900473ffffffffffffffffffffffffffffffffffffffff1673ffffffffffffffffffffffffffffffffffffffff161480611f2e5750600073ffffffffffffffffffffffffffffffffffffffff16600260009054906101000a900473ffffffffffffffffffffffffffffffffffffffff1673ffffffffffffffffffffffffffffffffffffffff16145b611fa0576040517f08c379a00000000000000000000000000000000000000000000000000000000081526004018080602001828103825260168152602001807f506c6179657273206c696d697420726561636865642e0000000000000000000081525060200191505060405180910390fd5b600b543414612017576040517f08c379a000000000000000000000000000000000000000000000000000000000815260040180806020018281038252600b8152602001807f626964203120657468657200000000000000000000000000000000000000000081525060200191505060405180910390fd5b7fffffffffffffffffffffffffffffffffffffffffffffffffffffffffffffffff600e8190555060405180602001604052806000815250600f9080519060200190612063929190612564565b50600073ffffffffffffffffffffffffffffffffffffffff16600160009054906101000a900473ffffffffffffffffffffffffffffffffffffffff1673ffffffffffffffffffffffffffffffffffffffff1614156121015733600160006101000a81548173ffffffffffffffffffffffffffffffffffffffff021916908373ffffffffffffffffffffffffffffffffffffffff16021790555061219b565b600073ffffffffffffffffffffffffffffffffffffffff16600260009054906101000a900473ffffffffffffffffffffffffffffffffffffffff1673ffffffffffffffffffffffffffffffffffffffff16141561219a5733600260006101000a81548173ffffffffffffffffffffffffffffffffffffffff021916908373ffffffffffffffffffffffffffffffffffffffff1602179055505b5b6001600d60006101000a81548160ff021916908360000b60ff160217905550565b6000816040516020018082805190602001908083835b602083106121f557805182526020820191506020810190506020830392506121d2565b6001836020036101000a03801982511681845116808217855250505050505090500191505060405160208183030381529060405280519060200120836040516020018082805190602001908083835b602083106122675780518252602082019150602081019050602083039250612244565b6001836020036101000a0380198251168184511680821785525050505050509050019150506040516020818303038152906040528051906020012014905092915050565b600082826040516020018083805190602001908083835b602083106122e557805182526020820191506020810190506020830392506122c2565b6001836020036101000a03801982511681845116808217855250505050505090500182805190602001908083835b602083106123365780518252602082019150602081019050602083039250612313565b6001836020036101000a0380198251168184511680821785525050505050509050019250505060405160208183030381529060405280519060200120905092915050565b606060008242334244604051602001808581526020018473ffffffffffffffffffffffffffffffffffffffff1673ffffffffffffffffffffffffffffffffffffffff1660601b81526014018381526020018281526020019450505050506040516020818303038152906040528051906020012060001c816123f757fe5b0690506000811415612441576040518060400160405280600181526020017f300000000000000000000000000000000000000000000000000000000000000081525091505061255f565b6001811415612488576040518060400160405280600181526020017f310000000000000000000000000000000000000000000000000000000000000081525091505061255f565b60028114156124cf576040518060400160405280600181526020017f320000000000000000000000000000000000000000000000000000000000000081525091505061255f565b6003811415612516576040518060400160405280600181526020017f330000000000000000000000000000000000000000000000000000000000000081525091505061255f565b600481141561255d576040518060400160405280600181526020017f340000000000000000000000000000000000000000000000000000000000000081525091505061255f565b505b919050565b828054600181600116156101000203166002900490600052602060002090601f016020900481019282601f106125a557805160ff19168380011785556125d3565b828001600101855582156125d3579182015b828111156125d25782518255916020019190600101906125b7565b5b5090506125e091906125e4565b5090565b61260691905b808211156126025760008160009055506001016125ea565b5090565b9056fe436f6d6d6974206265666f726520796f752072657665616c204f52204c657420746865206f7468657220706c6179657220636f6d6d6974436f6d6d6974206f6e6c7920696620796f7520706c6179207769746820706c61796572486f75736520697320656d7074792e20446f6e6174652065746865727320746f2020686f757365a265627a7a72315820b296cd3248104dc06d65d01f72d5d2225f19e027a497926a5a76ee3209a4414f64736f6c634300050b0032",
  "source": "pragma solidity 0.5.11;\n\ncontract SPSLS {\n    function () external payable\n    {\n        \n    }\n    mapping (string => mapping(string => int)) results;\n    address payable public player1;\n    address payable public player2;\n    address payable public owner;\n    uint private player1_points;\n    uint private player2_points;\n    string private player1Hand;\n    string private player2Hand;\n    bytes32 public player1HandHash;\n    bytes32 public player2HandHash;\n    uint private MAX_ROUND;\n    uint private bidAmount=1 ether;\n    uint public round_no;\n    int8 private gametype;\n    int winner = -1;\n    string public getFinalResult = \"\";\n    \n    \n    constructor() public payable \n    {   \n        owner= msg.sender;\n        gametype=0;\n        MAX_ROUND = 2;\n        round_no = 0;\n        \n        player1_points = 0;\n        player2_points = 0;\n        \n        player1 = address(0);\n        player2 = address(0);\n        \n        player1Hand = \"\";\n        player2Hand = \"\";\n        player1HandHash = 0;\n        player2HandHash = 0;\n        \n        /** constructor holding results matrix for determining winners */\n        results[\"0\"][\"0\"] = 0;\n        results[\"0\"][\"1\"] = 2;\n        results[\"0\"][\"2\"] = 1;\n        results[\"0\"][\"3\"] = 1;\n        results[\"0\"][\"4\"] = 2;\n        results[\"1\"][\"0\"] = 1;\n        results[\"1\"][\"1\"] = 0;\n        results[\"1\"][\"2\"] = 2;\n        results[\"1\"][\"3\"] = 2;\n        results[\"1\"][\"4\"] = 1;\n        results[\"2\"][\"0\"] = 2;\n        results[\"2\"][\"1\"] = 1;\n        results[\"2\"][\"2\"] = 0;\n        results[\"2\"][\"3\"] = 1;\n        results[\"2\"][\"4\"] = 2;\n        results[\"3\"][\"0\"] = 2;\n        results[\"3\"][\"1\"] = 1;\n        results[\"3\"][\"2\"] = 2;\n        results[\"3\"][\"3\"] = 0;\n        results[\"3\"][\"4\"] = 1;\n        results[\"4\"][\"0\"] = 1;\n        results[\"4\"][\"1\"] = 2;\n        results[\"4\"][\"2\"] = 1;\n        results[\"4\"][\"3\"] = 2;\n        results[\"4\"][\"4\"] = 0;\n    }\n    \n    \n    \n    /* Validation Modifiers */\n    modifier isRegistered() { \n        /** makes sure a player is already registered */\n        require (msg.sender == player1 || msg.sender == player2,\"join first!\");\n        _;\n    }\n\n    modifier isValid(string memory hand) {\n        /** string validation for encrypt */\n        require (compareStrings(hand,\"0\") || compareStrings(hand,\"1\") || compareStrings(hand,\"2\")|| compareStrings(hand,\"3\")|| compareStrings(hand,\"4\"));\n        _;\n    }\n    \n    \n    \n    \n    \n    \n    \n    /* utily functions */\n    function compareStrings (string memory a, string memory b) private pure returns (bool)\n    {\n        return keccak256(abi.encodePacked(a)) == keccak256(abi.encodePacked(b));\n    }\n\n    function calcHash(string memory a, string memory b) private pure returns (bytes32 x)\n    {\n        return keccak256(abi.encodePacked(a,b));\n    }\n    \n    function random(uint _range) private view returns (string memory) \n    {\n        uint randomnumber = uint(keccak256(abi.encodePacked(now, msg.sender, block.timestamp, block.difficulty))) % _range;\n        if(randomnumber==0) return \"0\";\n        if(randomnumber==1) return \"1\";\n        if(randomnumber==2) return \"2\";\n        if(randomnumber==3) return \"3\";\n        if(randomnumber==4) return \"4\";\n    }\n\n    function donateToHouse() public payable\n    {\n        address(this).transfer(msg.value); \n    }\n    \n    function etherInHouse() public view returns(uint)\n    {\n        return address(this).balance;\n    }\n    \n    \n    \n    \n    \n    \n    /* Main functions*/\n    function PlayWithBot() external payable\n    {\n        require(gametype != 1, \"Room not free\");\n        \n        require(player1 == address(0), \"Players limit reached.\");\n        \n        require(address(this).balance >= 1 ether, \"House is empty. Donate ethers to  house\");\n    \n        require (msg.value == bidAmount,\"bid 1 ether\");\n        \n    \n        winner = -1;    \n        getFinalResult = \"\";\n        \n        if(player1 == address(0))\n        {\n            player1 = msg.sender;\n            player2 = address(this);\n        }\n        gametype = -1;\n    }\n    \n    function PlayWithPlayer() public payable \n    {\n        /** initial registration. first player to register is player1, second player to register is player2 */\n        require(gametype != -1, \"Room not free\");\n\n        require (msg.sender != player1 && msg.sender != player2,\"You can't play as both players\");\n        \n        require(player1 == address(0) || player2 == address(0), \"Players limit reached.\");\n        \n        require (msg.value == bidAmount,\"bid 1 ether\");\n    \n        winner = -1;    \n        getFinalResult = \"\";\n        \n        if (player1 == address(0))\n        {\n            player1 = msg.sender;\n        }\n        else if (player2 == address(0))\n        {\n            player2 = msg.sender;\n        }\n        gametype = 1;\n    }\n\n    function commit(bytes32 _hash) public payable isRegistered \n    {\n        /** Encrypts each players initial hands */\n        require(gametype == 1, \"Commit only if you play with player\");\n        \n        if (msg.sender == player1)\n        {\n            require(player1HandHash == 0,\"Cannot commit twice\"); \n            player1HandHash = _hash;\n        }\n        else if (msg.sender == player2)\n        {\n            require(player2HandHash == 0,\"Cannot commit twice\");\n            player2HandHash = _hash; \n        }\n    }\n\n    function reveal(string memory _hand, string memory _nonce) public isRegistered isValid(_hand)\n    {\n        if(gametype != -1)\n            require(player1HandHash != 0 && player2HandHash != 0, \"Commit before you reveal OR Let the other player commit\");\n        \n        if (msg.sender == player1)\n        {\n            if(gametype != -1)\n                require( calcHash(_hand,_nonce) == player1HandHash, \"Commit violation\");\n            \n            player1Hand = _hand;\n                \n            if(gametype == -1)\n                player2Hand = random(5);\n        }\n        if (msg.sender == player2)\n        {\n            if(gametype != -1)\n                require( calcHash(_hand,_nonce) == player2HandHash, \"Commit violation\");\n            \n            player2Hand = _hand;\n        }\n    }\n\n    function roundResult() public  isRegistered\n    {\n        winner = -1;\n        require(round_no < MAX_ROUND);\n       \n        require(bytes(player1Hand).length != 0 && bytes(player2Hand).length != 0, \"Both players haven't played.\"); // This will trigger when both players have made a hand\n       \n        round_no++;\n        winner = results[player1Hand][player2Hand];\n        if (winner == 1)\n            player1_points++;\n        else if (winner == 2)\n            player2_points++;\n\n        player1Hand = \"\";\n        player2Hand = \"\";\n        player1HandHash = 0;\n        player2HandHash = 0;\n        \n        if(round_no == MAX_ROUND)\n        {\n            if (player1_points == player2_points) \n            {\n                owner.transfer(2*bidAmount); \n                getFinalResult = \"Draw\";\n            }\n            else if (player1_points > player2_points) \n            {\n                player1.transfer(2*bidAmount);\n                getFinalResult = \"Player1 wins\";\n            }\n            else if (player1_points < player2_points) \n            {\n                if(gametype == 1)\n                    player2.transfer(2*bidAmount);\n                getFinalResult = \"Player2 wins\";\n            }\n  \n            player1_points=0;\n            player2_points=0;\n            player1 = address(0);\n            player2 = address(0);\n            round_no = 0;\n        }\n\n    }\n    \n    function getRoundResult() public view returns(string memory)\n    {\n        if(winner == 0)\n        {\n            return \"DRAW\";\n        }\n        if(msg.sender == player1)\n        {\n            if(winner == 1)\n            {\n                return \"YOU WIN\";   \n            }\n            else\n            {\n                return \"YOU LOSE\";\n            }\n        }\n        if(msg.sender == player2)\n        {\n            if(winner == 2)\n            {\n                return \"YOU WIN\";   \n            }\n            else\n            {\n                return \"YOU LOSE\";\n            }\n        }\n        return \"NOT YET PLAYED\";\n    }\n    \n}",
  "sourcePath": "/Users/red/Documents/rajat/padhai/pg18/3rd sem/block_chain/GitRepo/new_spsls/contracts/SPSLS_V2.sol",
  "compiler": {
    "name": "solc",
    "version": "0.5.11+commit.c082d0b4.Emscripten.clang"
  },
  "schemaVersion": "3.0.16",
  "updatedAt": "2019-09-16T08:10:55.025Z",
  "devdoc": {
    "methods": {}
  },
  "userdoc": {
    "methods": {}
  }
}