{
  "contractName": "SPSLS",
  "abi": [
    {
      "constant": true,
      "inputs": [],
      "name": "round_no",
      "outputs": [
        {
          "internalType": "uint256",
          "name": "",
          "type": "uint256"
        }
      ],
      "payable": false,
      "stateMutability": "view",
      "type": "function"
    },
    {
      "constant": true,
      "inputs": [],
      "name": "player1Hand",
      "outputs": [
        {
          "internalType": "string",
          "name": "",
          "type": "string"
        }
      ],
      "payable": false,
      "stateMutability": "view",
      "type": "function"
    },
    {
      "constant": true,
      "inputs": [],
      "name": "whowithdrew",
      "outputs": [
        {
          "internalType": "int8",
          "name": "",
          "type": "int8"
        }
      ],
      "payable": false,
      "stateMutability": "view",
      "type": "function"
    },
    {
      "constant": true,
      "inputs": [],
      "name": "getFinalResult",
      "outputs": [
        {
          "internalType": "string",
          "name": "",
          "type": "string"
        }
      ],
      "payable": false,
      "stateMutability": "view",
      "type": "function"
    },
    {
      "constant": true,
      "inputs": [],
      "name": "gametype",
      "outputs": [
        {
          "internalType": "int8",
          "name": "",
          "type": "int8"
        }
      ],
      "payable": false,
      "stateMutability": "view",
      "type": "function"
    },
    {
      "constant": true,
      "inputs": [],
      "name": "player2",
      "outputs": [
        {
          "internalType": "address payable",
          "name": "",
          "type": "address"
        }
      ],
      "payable": false,
      "stateMutability": "view",
      "type": "function"
    },
    {
      "constant": true,
      "inputs": [],
      "name": "player2_points",
      "outputs": [
        {
          "internalType": "uint256",
          "name": "",
          "type": "uint256"
        }
      ],
      "payable": false,
      "stateMutability": "view",
      "type": "function"
    },
    {
      "constant": true,
      "inputs": [],
      "name": "player2Hand",
      "outputs": [
        {
          "internalType": "string",
          "name": "",
          "type": "string"
        }
      ],
      "payable": false,
      "stateMutability": "view",
      "type": "function"
    },
    {
      "constant": true,
      "inputs": [],
      "name": "player2HandHash",
      "outputs": [
        {
          "internalType": "bytes32",
          "name": "",
          "type": "bytes32"
        }
      ],
      "payable": false,
      "stateMutability": "view",
      "type": "function"
    },
    {
      "constant": true,
      "inputs": [],
      "name": "owner",
      "outputs": [
        {
          "internalType": "address payable",
          "name": "",
          "type": "address"
        }
      ],
      "payable": false,
      "stateMutability": "view",
      "type": "function"
    },
    {
      "constant": true,
      "inputs": [],
      "name": "player1HandHash",
      "outputs": [
        {
          "internalType": "bytes32",
          "name": "",
          "type": "bytes32"
        }
      ],
      "payable": false,
      "stateMutability": "view",
      "type": "function"
    },
    {
      "constant": true,
      "inputs": [],
      "name": "player1_points",
      "outputs": [
        {
          "internalType": "uint256",
          "name": "",
          "type": "uint256"
        }
      ],
      "payable": false,
      "stateMutability": "view",
      "type": "function"
    },
    {
      "constant": true,
      "inputs": [],
      "name": "player1",
      "outputs": [
        {
          "internalType": "address payable",
          "name": "",
          "type": "address"
        }
      ],
      "payable": false,
      "stateMutability": "view",
      "type": "function"
    },
    {
      "constant": true,
      "inputs": [],
      "name": "countdownBegins",
      "outputs": [
        {
          "internalType": "int256",
          "name": "",
          "type": "int256"
        }
      ],
      "payable": false,
      "stateMutability": "view",
      "type": "function"
    },
    {
      "constant": true,
      "inputs": [],
      "name": "house",
      "outputs": [
        {
          "internalType": "address payable",
          "name": "",
          "type": "address"
        }
      ],
      "payable": false,
      "stateMutability": "view",
      "type": "function"
    },
    {
      "inputs": [],
      "payable": true,
      "stateMutability": "payable",
      "type": "constructor"
    },
    {
      "payable": true,
      "stateMutability": "payable",
      "type": "fallback"
    },
    {
      "constant": true,
      "inputs": [
        {
          "internalType": "string",
          "name": "a",
          "type": "string"
        },
        {
          "internalType": "string",
          "name": "b",
          "type": "string"
        }
      ],
      "name": "calcHash",
      "outputs": [
        {
          "internalType": "bytes32",
          "name": "x",
          "type": "bytes32"
        }
      ],
      "payable": false,
      "stateMutability": "pure",
      "type": "function"
    },
    {
      "constant": false,
      "inputs": [],
      "name": "donateToHouse",
      "outputs": [],
      "payable": true,
      "stateMutability": "payable",
      "type": "function"
    },
    {
      "constant": true,
      "inputs": [],
      "name": "etherInHouse",
      "outputs": [
        {
          "internalType": "uint256",
          "name": "",
          "type": "uint256"
        }
      ],
      "payable": false,
      "stateMutability": "view",
      "type": "function"
    },
    {
      "constant": false,
      "inputs": [],
      "name": "withdraw",
      "outputs": [],
      "payable": false,
      "stateMutability": "nonpayable",
      "type": "function"
    },
    {
      "constant": true,
      "inputs": [],
      "name": "getState",
      "outputs": [
        {
          "internalType": "uint8",
          "name": "",
          "type": "uint8"
        }
      ],
      "payable": false,
      "stateMutability": "view",
      "type": "function"
    },
    {
      "constant": false,
      "inputs": [],
      "name": "PlayWithBot",
      "outputs": [],
      "payable": true,
      "stateMutability": "payable",
      "type": "function"
    },
    {
      "constant": false,
      "inputs": [],
      "name": "PlayWithPlayer",
      "outputs": [],
      "payable": true,
      "stateMutability": "payable",
      "type": "function"
    },
    {
      "constant": false,
      "inputs": [
        {
          "internalType": "bytes32",
          "name": "_hash",
          "type": "bytes32"
        }
      ],
      "name": "commit",
      "outputs": [],
      "payable": true,
      "stateMutability": "payable",
      "type": "function"
    },
    {
      "constant": false,
      "inputs": [
        {
          "internalType": "string",
          "name": "_hand",
          "type": "string"
        },
        {
          "internalType": "string",
          "name": "_nonce",
          "type": "string"
        }
      ],
      "name": "reveal",
      "outputs": [],
      "payable": false,
      "stateMutability": "nonpayable",
      "type": "function"
    },
    {
      "constant": false,
      "inputs": [],
      "name": "roundResult",
      "outputs": [
        {
          "internalType": "string",
          "name": "",
          "type": "string"
        }
      ],
      "payable": false,
      "stateMutability": "nonpayable",
      "type": "function"
    },
    {
      "constant": true,
      "inputs": [],
      "name": "getRoundResult",
      "outputs": [
        {
          "internalType": "string",
          "name": "",
          "type": "string"
        }
      ],
      "payable": false,
      "stateMutability": "view",
      "type": "function"
    }
  ],
  "bytecode": "0x6080604052670de0b6b3a7640000600c557fffffffffffffffffffffffffffffffffffffffffffffffffffffffffffffffff600f5560405180602001604052806000815250601090805190602001906200005b92919062000eb3565b50603c60115564e8d4a5100060125533600360006101000a81548173ffffffffffffffffffffffffffffffffffffffff021916908373ffffffffffffffffffffffffffffffffffffffff16021790555030600460006101000a81548173ffffffffffffffffffffffffffffffffffffffff021916908373ffffffffffffffffffffffffffffffffffffffff1602179055506000600e60006101000a81548160ff021916908360000b60ff1602179055506000600e60016101000a81548160ff021916908360000b60ff1602179055506003600b819055506000600d81905550600060058190555060006006819055506000600160006101000a81548173ffffffffffffffffffffffffffffffffffffffff021916908373ffffffffffffffffffffffffffffffffffffffff1602179055506000600260006101000a81548173ffffffffffffffffffffffffffffffffffffffff021916908373ffffffffffffffffffffffffffffffffffffffff1602179055506040518060200160405280600081525060079080519060200190620001f592919062000eb3565b5060405180602001604052806000815250600890805190602001906200021d92919062000eb3565b506000801b6009819055506000801b600a8190555060008060405180807f30000000000000000000000000000000000000000000000000000000000000008152506001019050908152602001604051809103902060405180807f300000000000000000000000000000000000000000000000000000000000000081525060010190509081526020016040518091039020819055506002600060405180807f30000000000000000000000000000000000000000000000000000000000000008152506001019050908152602001604051809103902060405180807f310000000000000000000000000000000000000000000000000000000000000081525060010190509081526020016040518091039020819055506001600060405180807f30000000000000000000000000000000000000000000000000000000000000008152506001019050908152602001604051809103902060405180807f320000000000000000000000000000000000000000000000000000000000000081525060010190509081526020016040518091039020819055506001600060405180807f30000000000000000000000000000000000000000000000000000000000000008152506001019050908152602001604051809103902060405180807f330000000000000000000000000000000000000000000000000000000000000081525060010190509081526020016040518091039020819055506002600060405180807f30000000000000000000000000000000000000000000000000000000000000008152506001019050908152602001604051809103902060405180807f340000000000000000000000000000000000000000000000000000000000000081525060010190509081526020016040518091039020819055506001600060405180807f31000000000000000000000000000000000000000000000000000000000000008152506001019050908152602001604051809103902060405180807f3000000000000000000000000000000000000000000000000000000000000000815250600101905090815260200160405180910390208190555060008060405180807f31000000000000000000000000000000000000000000000000000000000000008152506001019050908152602001604051809103902060405180807f310000000000000000000000000000000000000000000000000000000000000081525060010190509081526020016040518091039020819055506002600060405180807f31000000000000000000000000000000000000000000000000000000000000008152506001019050908152602001604051809103902060405180807f320000000000000000000000000000000000000000000000000000000000000081525060010190509081526020016040518091039020819055506002600060405180807f31000000000000000000000000000000000000000000000000000000000000008152506001019050908152602001604051809103902060405180807f330000000000000000000000000000000000000000000000000000000000000081525060010190509081526020016040518091039020819055506001600060405180807f31000000000000000000000000000000000000000000000000000000000000008152506001019050908152602001604051809103902060405180807f340000000000000000000000000000000000000000000000000000000000000081525060010190509081526020016040518091039020819055506002600060405180807f32000000000000000000000000000000000000000000000000000000000000008152506001019050908152602001604051809103902060405180807f300000000000000000000000000000000000000000000000000000000000000081525060010190509081526020016040518091039020819055506001600060405180807f32000000000000000000000000000000000000000000000000000000000000008152506001019050908152602001604051809103902060405180807f3100000000000000000000000000000000000000000000000000000000000000815250600101905090815260200160405180910390208190555060008060405180807f32000000000000000000000000000000000000000000000000000000000000008152506001019050908152602001604051809103902060405180807f320000000000000000000000000000000000000000000000000000000000000081525060010190509081526020016040518091039020819055506001600060405180807f32000000000000000000000000000000000000000000000000000000000000008152506001019050908152602001604051809103902060405180807f330000000000000000000000000000000000000000000000000000000000000081525060010190509081526020016040518091039020819055506002600060405180807f32000000000000000000000000000000000000000000000000000000000000008152506001019050908152602001604051809103902060405180807f340000000000000000000000000000000000000000000000000000000000000081525060010190509081526020016040518091039020819055506002600060405180807f33000000000000000000000000000000000000000000000000000000000000008152506001019050908152602001604051809103902060405180807f300000000000000000000000000000000000000000000000000000000000000081525060010190509081526020016040518091039020819055506001600060405180807f33000000000000000000000000000000000000000000000000000000000000008152506001019050908152602001604051809103902060405180807f310000000000000000000000000000000000000000000000000000000000000081525060010190509081526020016040518091039020819055506002600060405180807f33000000000000000000000000000000000000000000000000000000000000008152506001019050908152602001604051809103902060405180807f3200000000000000000000000000000000000000000000000000000000000000815250600101905090815260200160405180910390208190555060008060405180807f33000000000000000000000000000000000000000000000000000000000000008152506001019050908152602001604051809103902060405180807f330000000000000000000000000000000000000000000000000000000000000081525060010190509081526020016040518091039020819055506001600060405180807f33000000000000000000000000000000000000000000000000000000000000008152506001019050908152602001604051809103902060405180807f340000000000000000000000000000000000000000000000000000000000000081525060010190509081526020016040518091039020819055506001600060405180807f34000000000000000000000000000000000000000000000000000000000000008152506001019050908152602001604051809103902060405180807f300000000000000000000000000000000000000000000000000000000000000081525060010190509081526020016040518091039020819055506002600060405180807f34000000000000000000000000000000000000000000000000000000000000008152506001019050908152602001604051809103902060405180807f310000000000000000000000000000000000000000000000000000000000000081525060010190509081526020016040518091039020819055506001600060405180807f34000000000000000000000000000000000000000000000000000000000000008152506001019050908152602001604051809103902060405180807f320000000000000000000000000000000000000000000000000000000000000081525060010190509081526020016040518091039020819055506002600060405180807f34000000000000000000000000000000000000000000000000000000000000008152506001019050908152602001604051809103902060405180807f3300000000000000000000000000000000000000000000000000000000000000815250600101905090815260200160405180910390208190555060008060405180807f34000000000000000000000000000000000000000000000000000000000000008152506001019050908152602001604051809103902060405180807f3400000000000000000000000000000000000000000000000000000000000000815250600101905090815260200160405180910390208190555062000f62565b828054600181600116156101000203166002900490600052602060002090601f016020900481019282601f1062000ef657805160ff191683800117855562000f27565b8280016001018555821562000f27579182015b8281111562000f2657825182559160200191906001019062000f09565b5b50905062000f36919062000f3a565b5090565b62000f5f91905b8082111562000f5b57600081600090555060010162000f41565b5090565b90565b6137f98062000f726000396000f3fe6080604052600436106101815760003560e01c80638da5cb5b116100d1578063d30895e41161008a578063ed2085d811610064578063ed2085d8146108a2578063f14fcbc814610a15578063f3f1443f14610a43578063ff9b3acf14610a4d57610181565b8063d30895e4146107f5578063d37b73d01461084c578063de4e046f1461087757610181565b80638da5cb5b1461061e57806394002c8414610675578063a7545a5714610705578063bed4fe0914610730578063c3ad00271461073a578063ccaaa019146107ca57610181565b80634ffc065a1161013e5780635e5ecae4116101185780635e5ecae41461052e57806364f220e2146105595780636648be9e146105e95780638d11186f1461061457610181565b80634ffc065a1461034757806359a5f12d146103785780635ba1b2c7146103cf57610181565b806309ecd0c514610183578063139fa71b146101ae5780631865c57d1461023e57806329ae0c141461026f5780633c6e5310146102a05780633ccfd60b14610330575b005b34801561018f57600080fd5b50610198610aa4565b6040518082815260200191505060405180910390f35b3480156101ba57600080fd5b506101c3610aaa565b6040518080602001828103825283818151815260200191508051906020019080838360005b838110156102035780820151818401526020810190506101e8565b50505050905090810190601f1680156102305780820380516001836020036101000a031916815260200191505b509250505060405180910390f35b34801561024a57600080fd5b50610253610b48565b604051808260ff1660ff16815260200191505060405180910390f35b34801561027b57600080fd5b50610284610d7a565b604051808260000b60000b815260200191505060405180910390f35b3480156102ac57600080fd5b506102b5610d8d565b6040518080602001828103825283818151815260200191508051906020019080838360005b838110156102f55780820151818401526020810190506102da565b50505050905090810190601f1680156103225780820380516001836020036101000a031916815260200191505b509250505060405180910390f35b34801561033c57600080fd5b50610345610e2b565b005b34801561035357600080fd5b5061035c61121d565b604051808260000b60000b815260200191505060405180910390f35b34801561038457600080fd5b5061038d611230565b604051808273ffffffffffffffffffffffffffffffffffffffff1673ffffffffffffffffffffffffffffffffffffffff16815260200191505060405180910390f35b3480156103db57600080fd5b5061052c600480360360408110156103f257600080fd5b810190808035906020019064010000000081111561040f57600080fd5b82018360208201111561042157600080fd5b8035906020019184600183028401116401000000008311171561044357600080fd5b91908080601f016020809104026020016040519081016040528093929190818152602001838380828437600081840152601f19601f820116905080830192505050505050509192919290803590602001906401000000008111156104a657600080fd5b8201836020820111156104b857600080fd5b803590602001918460018302840111640100000000831117156104da57600080fd5b91908080601f016020809104026020016040519081016040528093929190818152602001838380828437600081840152601f19601f820116905080830192505050505050509192919290505050611256565b005b34801561053a57600080fd5b5061054361190e565b6040518082815260200191505060405180910390f35b34801561056557600080fd5b5061056e611914565b6040518080602001828103825283818151815260200191508051906020019080838360005b838110156105ae578082015181840152602081019050610593565b50505050905090810190601f1680156105db5780820380516001836020036101000a031916815260200191505b509250505060405180910390f35b3480156105f557600080fd5b506105fe6119b2565b6040518082815260200191505060405180910390f35b61061c6119b8565b005b34801561062a57600080fd5b50610633611a23565b604051808273ffffffffffffffffffffffffffffffffffffffff1673ffffffffffffffffffffffffffffffffffffffff16815260200191505060405180910390f35b34801561068157600080fd5b5061068a611a49565b6040518080602001828103825283818151815260200191508051906020019080838360005b838110156106ca5780820151818401526020810190506106af565b50505050905090810190601f1680156106f75780820380516001836020036101000a031916815260200191505b509250505060405180910390f35b34801561071157600080fd5b5061071a611c85565b6040518082815260200191505060405180910390f35b610738611c8b565b005b34801561074657600080fd5b5061074f612050565b6040518080602001828103825283818151815260200191508051906020019080838360005b8381101561078f578082015181840152602081019050610774565b50505050905090810190601f1680156107bc5780820380516001836020036101000a031916815260200191505b509250505060405180910390f35b3480156107d657600080fd5b506107df6127bf565b6040518082815260200191505060405180910390f35b34801561080157600080fd5b5061080a6127c5565b604051808273ffffffffffffffffffffffffffffffffffffffff1673ffffffffffffffffffffffffffffffffffffffff16815260200191505060405180910390f35b34801561085857600080fd5b506108616127eb565b6040518082815260200191505060405180910390f35b34801561088357600080fd5b5061088c61282c565b6040518082815260200191505060405180910390f35b3480156108ae57600080fd5b506109ff600480360360408110156108c557600080fd5b81019080803590602001906401000000008111156108e257600080fd5b8201836020820111156108f457600080fd5b8035906020019184600183028401116401000000008311171561091657600080fd5b91908080601f016020809104026020016040519081016040528093929190818152602001838380828437600081840152601f19601f8201169050808301925050505050505091929192908035906020019064010000000081111561097957600080fd5b82018360208201111561098b57600080fd5b803590602001918460018302840111640100000000831117156109ad57600080fd5b91908080601f016020809104026020016040519081016040528093929190818152602001838380828437600081840152601f19601f820116905080830192505050505050509192919290505050612832565b6040518082815260200191505060405180910390f35b610a4160048036036020811015610a2b57600080fd5b8101908080359060200190929190505050612901565b005b610a4b612c3f565b005b348015610a5957600080fd5b50610a6261313e565b604051808273ffffffffffffffffffffffffffffffffffffffff1673ffffffffffffffffffffffffffffffffffffffff16815260200191505060405180910390f35b600d5481565b60078054600181600116156101000203166002900480601f016020809104026020016040519081016040528092919081815260200182805460018160011615610100020316600290048015610b405780601f10610b1557610100808354040283529160200191610b40565b820191906000526020600020905b815481529060010190602001808311610b2357829003601f168201915b505050505081565b60007fffffffffffffffffffffffffffffffffffffffffffffffffffffffffffffffff600e60009054906101000a900460000b60000b14610d06576000600780546001816001161561010002031660029004905014158015610bc157506000600880546001816001161561010002031660029004905014155b15610bcf5760009050610d77565b6000600780546001816001161561010002031660029004905014158015610c0c575060006008805460018160011615610100020316600290049050145b15610c1a5760019050610d77565b60006007805460018160011615610100020316600290049050148015610c5757506000600880546001816001161561010002031660029004905014155b15610c655760029050610d77565b6000801b600954148015610c7d57506000801b600a54145b15610c8b5760039050610d77565b6000801b60095414158015610ca457506000801b600a54145b15610cb25760049050610d77565b6000801b600954148015610ccb57506000801b600a5414155b15610cd95760059050610d77565b6000801b60095414158015610cf357506000801b600a5414155b15610d015760069050610d77565b610d76565b6001600e60009054906101000a900460000b60000b14610d75576000600780546001816001161561010002031660029004905014158015610d5e57506000600880546001816001161561010002031660029004905014155b15610d6c5760009050610d77565b60069050610d77565b5b5b90565b600e60019054906101000a900460000b81565b60108054600181600116156101000203166002900480601f016020809104026020016040519081016040528092919081815260200182805460018160011615610100020316600290048015610e235780601f10610df857610100808354040283529160200191610e23565b820191906000526020600020905b815481529060010190602001808311610e0657829003601f168201915b505050505081565b600160009054906101000a900473ffffffffffffffffffffffffffffffffffffffff1673ffffffffffffffffffffffffffffffffffffffff163373ffffffffffffffffffffffffffffffffffffffff161480610ed45750600260009054906101000a900473ffffffffffffffffffffffffffffffffffffffff1673ffffffffffffffffffffffffffffffffffffffff163373ffffffffffffffffffffffffffffffffffffffff16145b610f46576040517f08c379a000000000000000000000000000000000000000000000000000000000815260040180806020018281038252600b8152602001807f6a6f696e2066697273742100000000000000000000000000000000000000000081525060200191505060405180910390fd5b600160009054906101000a900473ffffffffffffffffffffffffffffffffffffffff1673ffffffffffffffffffffffffffffffffffffffff163373ffffffffffffffffffffffffffffffffffffffff16141561100f57600260009054906101000a900473ffffffffffffffffffffffffffffffffffffffff1673ffffffffffffffffffffffffffffffffffffffff166108fc600c546002029081150290604051600060405180830381858888f19350505050158015611009573d6000803e3d6000fd5b506110d5565b600260009054906101000a900473ffffffffffffffffffffffffffffffffffffffff1673ffffffffffffffffffffffffffffffffffffffff163373ffffffffffffffffffffffffffffffffffffffff1614156110d457600160009054906101000a900473ffffffffffffffffffffffffffffffffffffffff1673ffffffffffffffffffffffffffffffffffffffff166108fc600c546002029081150290604051600060405180830381858888f193505050501580156110d2573d6000803e3d6000fd5b505b5b60405180602001604052806000815250600790805190602001906110fa92919061369e565b50604051806020016040528060008152506008908051906020019061112092919061369e565b506000801b6009819055506000801b600a81905550600060058190555060006006819055506000600160006101000a81548173ffffffffffffffffffffffffffffffffffffffff021916908373ffffffffffffffffffffffffffffffffffffffff1602179055506000600260006101000a81548173ffffffffffffffffffffffffffffffffffffffff021916908373ffffffffffffffffffffffffffffffffffffffff1602179055506000600d819055506000600e60006101000a81548160ff021916908360000b60ff1602179055506000600e60016101000a81548160ff021916908360000b60ff16021790555064e8d4a51000601281905550565b600e60009054906101000a900460000b81565b600260009054906101000a900473ffffffffffffffffffffffffffffffffffffffff1681565b600160009054906101000a900473ffffffffffffffffffffffffffffffffffffffff1673ffffffffffffffffffffffffffffffffffffffff163373ffffffffffffffffffffffffffffffffffffffff1614806112ff5750600260009054906101000a900473ffffffffffffffffffffffffffffffffffffffff1673ffffffffffffffffffffffffffffffffffffffff163373ffffffffffffffffffffffffffffffffffffffff16145b611371576040517f08c379a000000000000000000000000000000000000000000000000000000000815260040180806020018281038252600b8152602001807f6a6f696e2066697273742100000000000000000000000000000000000000000081525060200191505060405180910390fd5b816113b1816040518060400160405280600181526020017f3000000000000000000000000000000000000000000000000000000000000000815250613164565b806113f757506113f6816040518060400160405280600181526020017f3100000000000000000000000000000000000000000000000000000000000000815250613164565b5b8061143d575061143c816040518060400160405280600181526020017f3200000000000000000000000000000000000000000000000000000000000000815250613164565b5b806114835750611482816040518060400160405280600181526020017f3300000000000000000000000000000000000000000000000000000000000000815250613164565b5b806114c957506114c8816040518060400160405280600181526020017f3400000000000000000000000000000000000000000000000000000000000000815250613164565b5b6114d257600080fd5b7fffffffffffffffffffffffffffffffffffffffffffffffffffffffffffffffff600e60009054906101000a900460000b60000b1461157b576000801b6009541415801561152557506000801b600a5414155b61157a576040517f08c379a00000000000000000000000000000000000000000000000000000000081526004018080602001828103825260378152602001806137446037913960400191505060405180910390fd5b5b600060078054600181600116156101000203166002900490501480156115b7575060006008805460018160011615610100020316600290049050145b1561165e5742601281905550600260009054906101000a900473ffffffffffffffffffffffffffffffffffffffff1673ffffffffffffffffffffffffffffffffffffffff163373ffffffffffffffffffffffffffffffffffffffff16141561163d576001600e60016101000a81548160ff021916908360000b60ff16021790555061165d565b6002600e60016101000a81548160ff021916908360000b60ff1602179055505b5b600160009054906101000a900473ffffffffffffffffffffffffffffffffffffffff1673ffffffffffffffffffffffffffffffffffffffff163373ffffffffffffffffffffffffffffffffffffffff1614156117e1577fffffffffffffffffffffffffffffffffffffffffffffffffffffffffffffffff600e60009054906101000a900460000b60000b1461176e576009546116fa8484612832565b1461176d576040517f08c379a00000000000000000000000000000000000000000000000000000000081526004018080602001828103825260108152602001807f436f6d6d69742076696f6c6174696f6e0000000000000000000000000000000081525060200191505060405180910390fd5b5b826007908051906020019061178492919061369e565b507fffffffffffffffffffffffffffffffffffffffffffffffffffffffffffffffff600e60009054906101000a900460000b60000b14156117e0576117c96005613253565b600890805190602001906117de92919061369e565b505b5b600260009054906101000a900473ffffffffffffffffffffffffffffffffffffffff1673ffffffffffffffffffffffffffffffffffffffff163373ffffffffffffffffffffffffffffffffffffffff161415611909577fffffffffffffffffffffffffffffffffffffffffffffffffffffffffffffffff600e60009054906101000a900460000b60000b146118f157600a5461187d8484612832565b146118f0576040517f08c379a00000000000000000000000000000000000000000000000000000000081526004018080602001828103825260108152602001807f436f6d6d69742076696f6c6174696f6e0000000000000000000000000000000081525060200191505060405180910390fd5b5b826008908051906020019061190792919061369e565b505b505050565b60065481565b60088054600181600116156101000203166002900480601f0160208091040260200160405190810160405280929190818152602001828054600181600116156101000203166002900480156119aa5780601f1061197f576101008083540402835291602001916119aa565b820191906000526020600020905b81548152906001019060200180831161198d57829003601f168201915b505050505081565b600a5481565b600460009054906101000a900473ffffffffffffffffffffffffffffffffffffffff1673ffffffffffffffffffffffffffffffffffffffff166108fc349081150290604051600060405180830381858888f19350505050158015611a20573d6000803e3d6000fd5b50565b600360009054906101000a900473ffffffffffffffffffffffffffffffffffffffff1681565b60606000600f541415611a93576040518060400160405280600481526020017f44524157000000000000000000000000000000000000000000000000000000008152509050611c82565b600160009054906101000a900473ffffffffffffffffffffffffffffffffffffffff1673ffffffffffffffffffffffffffffffffffffffff163373ffffffffffffffffffffffffffffffffffffffff161415611b6e576001600f541415611b31576040518060400160405280600781526020017f594f552057494e000000000000000000000000000000000000000000000000008152509050611c82565b6040518060400160405280600881526020017f594f55204c4f53450000000000000000000000000000000000000000000000008152509050611c82565b600260009054906101000a900473ffffffffffffffffffffffffffffffffffffffff1673ffffffffffffffffffffffffffffffffffffffff163373ffffffffffffffffffffffffffffffffffffffff161415611c49576002600f541415611c0c576040518060400160405280600781526020017f594f552057494e000000000000000000000000000000000000000000000000008152509050611c82565b6040518060400160405280600881526020017f594f55204c4f53450000000000000000000000000000000000000000000000008152509050611c82565b6040518060400160405280600e81526020017f4e4f542059455420504c4159454400000000000000000000000000000000000081525090505b90565b60095481565b6001600e60009054906101000a900460000b60000b1415611d14576040517f08c379a000000000000000000000000000000000000000000000000000000000815260040180806020018281038252600d8152602001807f526f6f6d206e6f7420667265650000000000000000000000000000000000000081525060200191505060405180910390fd5b600073ffffffffffffffffffffffffffffffffffffffff16600160009054906101000a900473ffffffffffffffffffffffffffffffffffffffff1673ffffffffffffffffffffffffffffffffffffffff1614611dd8576040517f08c379a00000000000000000000000000000000000000000000000000000000081526004018080602001828103825260168152602001807f506c6179657273206c696d697420726561636865642e0000000000000000000081525060200191505060405180910390fd5b600c543414611e4f576040517f08c379a000000000000000000000000000000000000000000000000000000000815260040180806020018281038252600b8152602001807f626964203120657468657200000000000000000000000000000000000000000081525060200191505060405180910390fd5b671bc16d674ec800003073ffffffffffffffffffffffffffffffffffffffff16311015611ec7576040517f08c379a000000000000000000000000000000000000000000000000000000000815260040180806020018281038252602781526020018061379e6027913960400191505060405180910390fd5b7fffffffffffffffffffffffffffffffffffffffffffffffffffffffffffffffff600f819055506040518060200160405280600081525060109080519060200190611f1392919061369e565b50600073ffffffffffffffffffffffffffffffffffffffff16600160009054906101000a900473ffffffffffffffffffffffffffffffffffffffff1673ffffffffffffffffffffffffffffffffffffffff1614156120105733600160006101000a81548173ffffffffffffffffffffffffffffffffffffffff021916908373ffffffffffffffffffffffffffffffffffffffff160217905550600460009054906101000a900473ffffffffffffffffffffffffffffffffffffffff16600260006101000a81548173ffffffffffffffffffffffffffffffffffffffff021916908373ffffffffffffffffffffffffffffffffffffffff1602179055505b7fffffffffffffffffffffffffffffffffffffffffffffffffffffffffffffffff600e60006101000a81548160ff021916908360000b60ff160217905550565b6060600160009054906101000a900473ffffffffffffffffffffffffffffffffffffffff1673ffffffffffffffffffffffffffffffffffffffff163373ffffffffffffffffffffffffffffffffffffffff1614806120fb5750600260009054906101000a900473ffffffffffffffffffffffffffffffffffffffff1673ffffffffffffffffffffffffffffffffffffffff163373ffffffffffffffffffffffffffffffffffffffff16145b61216d576040517f08c379a000000000000000000000000000000000000000000000000000000000815260040180806020018281038252600b8152602001807f6a6f696e2066697273742100000000000000000000000000000000000000000081525060200191505060405180910390fd5b7fffffffffffffffffffffffffffffffffffffffffffffffffffffffffffffffff600f81905550600b54600d54106121a457600080fd5b601154601254420313156121f7576121ba61343d565b6040518060400160405280600881526020017f54696d65206f757400000000000000000000000000000000000000000000000081525090506127bc565b600060078054600181600116156101000203166002900490501415801561223557506000600880546001816001161561010002031660029004905014155b6122a7576040517f08c379a000000000000000000000000000000000000000000000000000000000815260040180806020018281038252601c8152602001807f426f746820706c617965727320686176656e277420706c617965642e0000000081525060200191505060405180910390fd5b600d600081548092919060010191905055506000600760405180828054600181600116156101000203166002900480156123185780601f106122f6576101008083540402835291820191612318565b820191906000526020600020905b815481529060010190602001808311612304575b50509150509081526020016040518091039020600860405180828054600181600116156101000203166002900480156123885780601f10612366576101008083540402835291820191612388565b820191906000526020600020905b815481529060010190602001808311612374575b5050915050908152602001604051809103902054600f819055506001600f5414156123c4576005600081548092919060010191905055506123e3565b6002600f5414156123e2576006600081548092919060010191905055505b5b604051806020016040528060008152506007908051906020019061240892919061369e565b50604051806020016040528060008152506008908051906020019061242e92919061369e565b506000801b6009819055506000801b600a81905550600b54600d54141561278657600654600554141561251a57600360009054906101000a900473ffffffffffffffffffffffffffffffffffffffff1673ffffffffffffffffffffffffffffffffffffffff166108fc600c546002029081150290604051600060405180830381858888f193505050501580156124c8573d6000803e3d6000fd5b506040518060400160405280600481526020017f44726177000000000000000000000000000000000000000000000000000000008152506010908051906020019061251492919061369e565b506126ca565b60065460055411156125e557600160009054906101000a900473ffffffffffffffffffffffffffffffffffffffff1673ffffffffffffffffffffffffffffffffffffffff166108fc600c546002029081150290604051600060405180830381858888f19350505050158015612593573d6000803e3d6000fd5b506040518060400160405280600c81526020017f506c61796572312077696e730000000000000000000000000000000000000000815250601090805190602001906125df92919061369e565b506126c9565b60065460055410156126c8576001600e60009054906101000a900460000b60000b141561267b57600260009054906101000a900473ffffffffffffffffffffffffffffffffffffffff1673ffffffffffffffffffffffffffffffffffffffff166108fc600c546002029081150290604051600060405180830381858888f19350505050158015612679573d6000803e3d6000fd5b505b6040518060400160405280600c81526020017f506c61796572322077696e730000000000000000000000000000000000000000815250601090805190602001906126c692919061369e565b505b5b5b600060058190555060006006819055506000600160006101000a81548173ffffffffffffffffffffffffffffffffffffffff021916908373ffffffffffffffffffffffffffffffffffffffff1602179055506000600260006101000a81548173ffffffffffffffffffffffffffffffffffffffff021916908373ffffffffffffffffffffffffffffffffffffffff1602179055506000600d819055506000600e60006101000a81548160ff021916908360000b60ff1602179055505b64e8d4a510006012819055506000600e60016101000a81548160ff021916908360000b60ff1602179055506127b9611a49565b90505b90565b60055481565b600160009054906101000a900473ffffffffffffffffffffffffffffffffffffffff1681565b6000600460009054906101000a900473ffffffffffffffffffffffffffffffffffffffff1673ffffffffffffffffffffffffffffffffffffffff1631905090565b60125481565b600082826040516020018083805190602001908083835b6020831061286c5780518252602082019150602081019050602083039250612849565b6001836020036101000a03801982511681845116808217855250505050505090500182805190602001908083835b602083106128bd578051825260208201915060208101905060208303925061289a565b6001836020036101000a0380198251168184511680821785525050505050509050019250505060405160208183030381529060405280519060200120905092915050565b600160009054906101000a900473ffffffffffffffffffffffffffffffffffffffff1673ffffffffffffffffffffffffffffffffffffffff163373ffffffffffffffffffffffffffffffffffffffff1614806129aa5750600260009054906101000a900473ffffffffffffffffffffffffffffffffffffffff1673ffffffffffffffffffffffffffffffffffffffff163373ffffffffffffffffffffffffffffffffffffffff16145b612a1c576040517f08c379a000000000000000000000000000000000000000000000000000000000815260040180806020018281038252600b8152602001807f6a6f696e2066697273742100000000000000000000000000000000000000000081525060200191505060405180910390fd5b6001600e60009054906101000a900460000b60000b14612a87576040517f08c379a000000000000000000000000000000000000000000000000000000000815260040180806020018281038252602381526020018061377b6023913960400191505060405180910390fd5b600160009054906101000a900473ffffffffffffffffffffffffffffffffffffffff1673ffffffffffffffffffffffffffffffffffffffff163373ffffffffffffffffffffffffffffffffffffffff161415612b63576000801b60095414612b57576040517f08c379a00000000000000000000000000000000000000000000000000000000081526004018080602001828103825260138152602001807f43616e6e6f7420636f6d6d69742074776963650000000000000000000000000081525060200191505060405180910390fd5b80600981905550612c3c565b600260009054906101000a900473ffffffffffffffffffffffffffffffffffffffff1673ffffffffffffffffffffffffffffffffffffffff163373ffffffffffffffffffffffffffffffffffffffff161415612c3b576000801b600a5414612c33576040517f08c379a00000000000000000000000000000000000000000000000000000000081526004018080602001828103825260138152602001807f43616e6e6f7420636f6d6d69742074776963650000000000000000000000000081525060200191505060405180910390fd5b80600a819055505b5b50565b7fffffffffffffffffffffffffffffffffffffffffffffffffffffffffffffffff600e60009054906101000a900460000b60000b1415612ce7576040517f08c379a000000000000000000000000000000000000000000000000000000000815260040180806020018281038252600d8152602001807f526f6f6d206e6f7420667265650000000000000000000000000000000000000081525060200191505060405180910390fd5b600160009054906101000a900473ffffffffffffffffffffffffffffffffffffffff1673ffffffffffffffffffffffffffffffffffffffff163373ffffffffffffffffffffffffffffffffffffffff1614158015612d935750600260009054906101000a900473ffffffffffffffffffffffffffffffffffffffff1673ffffffffffffffffffffffffffffffffffffffff163373ffffffffffffffffffffffffffffffffffffffff1614155b612e05576040517f08c379a000000000000000000000000000000000000000000000000000000000815260040180806020018281038252601e8152602001807f596f752063616e277420706c617920617320626f746820706c6179657273000081525060200191505060405180910390fd5b600073ffffffffffffffffffffffffffffffffffffffff16600160009054906101000a900473ffffffffffffffffffffffffffffffffffffffff1673ffffffffffffffffffffffffffffffffffffffff161480612eb05750600073ffffffffffffffffffffffffffffffffffffffff16600260009054906101000a900473ffffffffffffffffffffffffffffffffffffffff1673ffffffffffffffffffffffffffffffffffffffff16145b612f22576040517f08c379a00000000000000000000000000000000000000000000000000000000081526004018080602001828103825260168152602001807f506c6179657273206c696d697420726561636865642e0000000000000000000081525060200191505060405180910390fd5b600c543414612f99576040517f08c379a000000000000000000000000000000000000000000000000000000000815260040180806020018281038252600b8152602001807f626964203120657468657200000000000000000000000000000000000000000081525060200191505060405180910390fd5b6001600e60006101000a81548160ff021916908360000b60ff1602179055507fffffffffffffffffffffffffffffffffffffffffffffffffffffffffffffffff600f81905550604051806020016040528060008152506010908051906020019061300492919061369e565b50600073ffffffffffffffffffffffffffffffffffffffff16600160009054906101000a900473ffffffffffffffffffffffffffffffffffffffff1673ffffffffffffffffffffffffffffffffffffffff1614156130a25733600160006101000a81548173ffffffffffffffffffffffffffffffffffffffff021916908373ffffffffffffffffffffffffffffffffffffffff16021790555061313c565b600073ffffffffffffffffffffffffffffffffffffffff16600260009054906101000a900473ffffffffffffffffffffffffffffffffffffffff1673ffffffffffffffffffffffffffffffffffffffff16141561313b5733600260006101000a81548173ffffffffffffffffffffffffffffffffffffffff021916908373ffffffffffffffffffffffffffffffffffffffff1602179055505b5b565b600460009054906101000a900473ffffffffffffffffffffffffffffffffffffffff1681565b6000816040516020018082805190602001908083835b6020831061319d578051825260208201915060208101905060208303925061317a565b6001836020036101000a03801982511681845116808217855250505050505090500191505060405160208183030381529060405280519060200120836040516020018082805190602001908083835b6020831061320f57805182526020820191506020810190506020830392506131ec565b6001836020036101000a0380198251168184511680821785525050505050509050019150506040516020818303038152906040528051906020012014905092915050565b606060008242334244604051602001808581526020018473ffffffffffffffffffffffffffffffffffffffff1673ffffffffffffffffffffffffffffffffffffffff1660601b81526014018381526020018281526020019450505050506040516020818303038152906040528051906020012060001c816132d057fe5b069050600081141561331a576040518060400160405280600181526020017f3000000000000000000000000000000000000000000000000000000000000000815250915050613438565b6001811415613361576040518060400160405280600181526020017f3100000000000000000000000000000000000000000000000000000000000000815250915050613438565b60028114156133a8576040518060400160405280600181526020017f3200000000000000000000000000000000000000000000000000000000000000815250915050613438565b60038114156133ef576040518060400160405280600181526020017f3300000000000000000000000000000000000000000000000000000000000000815250915050613438565b6004811415613436576040518060400160405280600181526020017f3400000000000000000000000000000000000000000000000000000000000000815250915050613438565b505b919050565b6001600e60019054906101000a900460000b60000b14156134cb57600260009054906101000a900473ffffffffffffffffffffffffffffffffffffffff1673ffffffffffffffffffffffffffffffffffffffff166108fc600c546002029081150290604051600060405180830381858888f193505050501580156134c5573d6000803e3d6000fd5b50613556565b6002600e60019054906101000a900460000b60000b141561355557600160009054906101000a900473ffffffffffffffffffffffffffffffffffffffff1673ffffffffffffffffffffffffffffffffffffffff166108fc600c546002029081150290604051600060405180830381858888f19350505050158015613553573d6000803e3d6000fd5b505b5b604051806020016040528060008152506007908051906020019061357b92919061369e565b5060405180602001604052806000815250600890805190602001906135a192919061369e565b506000801b6009819055506000801b600a81905550600060058190555060006006819055506000600160006101000a81548173ffffffffffffffffffffffffffffffffffffffff021916908373ffffffffffffffffffffffffffffffffffffffff1602179055506000600260006101000a81548173ffffffffffffffffffffffffffffffffffffffff021916908373ffffffffffffffffffffffffffffffffffffffff1602179055506000600d819055506000600e60006101000a81548160ff021916908360000b60ff1602179055506000600e60016101000a81548160ff021916908360000b60ff16021790555064e8d4a51000601281905550565b828054600181600116156101000203166002900490600052602060002090601f016020900481019282601f106136df57805160ff191683800117855561370d565b8280016001018555821561370d579182015b8281111561370c5782518255916020019190600101906136f1565b5b50905061371a919061371e565b5090565b61374091905b8082111561373c576000816000905550600101613724565b5090565b9056fe436f6d6d6974206265666f726520796f752072657665616c204f52204c657420746865206f7468657220706c6179657220636f6d6d6974436f6d6d6974206f6e6c7920696620796f7520706c6179207769746820706c61796572486f75736520697320656d7074792e20446f6e6174652065746865727320746f2020686f757365a265627a7a72315820168043b6adfe9ce9699295e527687e23b55cfdd1274e457c3198f2a02f3dc97064736f6c634300050b0032",
  "source": "pragma solidity 0.5.11;\n\ncontract SPSLS {\n    function () external payable\n    {\n        \n    }\n    mapping (string => mapping(string => int)) results;\n    address payable public player1;\n    address payable public player2;\n    address payable public owner;\n    address payable public house;\n    uint public player1_points;\n    uint public player2_points;\n    string public player1Hand;\n    string public player2Hand;\n    bytes32 public player1HandHash;\n    bytes32 public player2HandHash;\n    uint private MAX_ROUND;\n    uint private bidAmount = 1 ether;\n    uint public round_no;\n    int8 public gametype;\n    int8 public whowithdrew;\n    int winner = -1;\n    string public getFinalResult = \"\";\n    int256 constant INT_MAX = 1000000000000;\n    int private TIMEOUTTIMER = 60;\n    int public countdownBegins=INT_MAX;\n    \n    \n    constructor() public payable \n    {   \n        \n        owner= msg.sender;\n        house = address(this);\n        gametype=0;\n        whowithdrew=0;\n        MAX_ROUND = 3;\n        round_no = 0;\n        \n        player1_points = 0;\n        player2_points = 0;\n        \n        player1 = address(0);\n        player2 = address(0);\n        \n        player1Hand = \"\";\n        player2Hand = \"\";\n        player1HandHash = bytes32(0);\n        player2HandHash = bytes32(0);\n        \n        /** constructor holding results matrix for determining winners */\n        results[\"0\"][\"0\"] = 0;\n        results[\"0\"][\"1\"] = 2;\n        results[\"0\"][\"2\"] = 1;\n        results[\"0\"][\"3\"] = 1;\n        results[\"0\"][\"4\"] = 2;\n        results[\"1\"][\"0\"] = 1;\n        results[\"1\"][\"1\"] = 0;\n        results[\"1\"][\"2\"] = 2;\n        results[\"1\"][\"3\"] = 2;\n        results[\"1\"][\"4\"] = 1;\n        results[\"2\"][\"0\"] = 2;\n        results[\"2\"][\"1\"] = 1;\n        results[\"2\"][\"2\"] = 0;\n        results[\"2\"][\"3\"] = 1;\n        results[\"2\"][\"4\"] = 2;\n        results[\"3\"][\"0\"] = 2;\n        results[\"3\"][\"1\"] = 1;\n        results[\"3\"][\"2\"] = 2;\n        results[\"3\"][\"3\"] = 0;\n        results[\"3\"][\"4\"] = 1;\n        results[\"4\"][\"0\"] = 1;\n        results[\"4\"][\"1\"] = 2;\n        results[\"4\"][\"2\"] = 1;\n        results[\"4\"][\"3\"] = 2;\n        results[\"4\"][\"4\"] = 0;\n    }\n    \n    \n    \n    /* Validation Modifiers */\n    modifier isRegistered() { \n        /** makes sure a player is already registered */\n        require (msg.sender == player1 || msg.sender == player2,\"join first!\");\n        _;\n    }\n\n    modifier isValid(string memory hand) {\n        /** string validation for encrypt */\n        require (compareStrings(hand,\"0\") || compareStrings(hand,\"1\") || compareStrings(hand,\"2\")|| compareStrings(hand,\"3\")|| compareStrings(hand,\"4\"));\n        _;\n    }\n    \n    \n    \n    \n    \n    \n    \n    /* utily functions */\n    function compareStrings (string memory a, string memory b) private pure returns (bool)\n    {\n        return keccak256(abi.encodePacked(a)) == keccak256(abi.encodePacked(b));\n    }\n\n    function calcHash(string memory a, string memory b) public pure returns (bytes32 x)\n    {\n        return keccak256(abi.encodePacked(a,b));\n    }\n    \n    function random(uint _range) private view returns (string memory) \n    {\n        uint randomnumber = uint(keccak256(abi.encodePacked(now, msg.sender, block.timestamp, block.difficulty))) % _range;\n        if(randomnumber==0) return \"0\";\n        if(randomnumber==1) return \"1\";\n        if(randomnumber==2) return \"2\";\n        if(randomnumber==3) return \"3\";\n        if(randomnumber==4) return \"4\";\n    }\n\n    function donateToHouse() public payable\n    {\n        house.transfer(msg.value); \n    }\n    \n    function etherInHouse() public view returns(uint)\n    {\n        return house.balance;\n    }\n    \n    function withdraw() public isRegistered \n    {\n         if (msg.sender==player1)\n                player2.transfer(2*bidAmount);\n            else if (msg.sender==player2)\n                player1.transfer(2*bidAmount);\n\n            /** reset everything ready for the next game */\n            player1Hand = \"\";\n            player2Hand = \"\";\n            player1HandHash = bytes32(0);\n            player2HandHash = bytes32(0);\n            player1_points=0;\n            player2_points=0;\n            player1 = address(0);\n            player2 = address(0);\n            round_no = 0;\n            gametype=0;\n            whowithdrew = 0;\n            countdownBegins=INT_MAX;\n    }\n    \n    function countdown() private\n    {\n        if (whowithdrew == 1)\n            player2.transfer(2*bidAmount);\n        else if (whowithdrew == 2)\n            player1.transfer(2*bidAmount);\n        player1Hand = \"\";\n        player2Hand = \"\";\n        player1HandHash = bytes32(0);\n        player2HandHash = bytes32(0);\n        player1_points=0;\n        player2_points=0;\n        player1 = address(0);\n        player2 = address(0);\n        round_no = 0;\n        gametype=0;\n        whowithdrew = 0;\n        countdownBegins=INT_MAX;\n    }\n    \n    function getState() public view returns (uint8) {\n        if(gametype != -1)\n\t  \t{\n    \t  \tif(bytes(player1Hand).length != 0 && bytes(player2Hand).length != 0)\n    \t  \t    return 0; //getRoundResult\n    \t  \tif(bytes(player1Hand).length != 0 && bytes(player2Hand).length == 0)\n    \t  \t    return 1; // reveal\n    \t  \tif(bytes(player1Hand).length == 0 && bytes(player2Hand).length != 0)\n    \t  \t    return 2; // reveal\n    \t  \tif(player1HandHash==bytes32(0) && player2HandHash==bytes32(0))\n    \t  \t    return 3; // commit\n\t  \t    if(player1HandHash!=bytes32(0) && player2HandHash==bytes32(0))\n\t  \t\t    return 4; // commit\n\t  \t\tif(player1HandHash==bytes32(0) && player2HandHash!=bytes32(0))\n\t  \t\t    return 5; // commit\n    \t  \tif(player1HandHash != bytes32(0) && player2HandHash != bytes32(0))\n    \t  \t    return 6;  // reveal\n\t  \t}\n\t  \telse if(gametype != 1)\n\t  \t{\n\t  \t    if(bytes(player1Hand).length != 0 && bytes(player2Hand).length != 0)\n    \t  \t    return 0; // getRoundResult\n    \t  \telse\n    \t  \t    return 6; // reveal\n\t  \t}\n    }\n \n    \n    \n    \n    \n    \n    /* Main functions*/\n    function PlayWithBot() external payable\n    {\n        require(gametype != 1, \"Room not free\");\n        \n        require(player1 == address(0), \"Players limit reached.\");\n        \n        require (msg.value == bidAmount,\"bid 1 ether\");\n    \n        require(address(this).balance >= 2 ether, \"House is empty. Donate ethers to  house\");\n    \n        winner = -1;    \n        getFinalResult = \"\";\n        \n        if(player1 == address(0))\n        {\n            player1 = msg.sender;\n            player2 = house;\n        }\n        gametype = -1;\n    }\n    \n    function PlayWithPlayer() public payable\n    {\n        /** initial registration. first player to register is player1, second player to register is player2 */\n        require(gametype != -1, \"Room not free\");\n\n        require (msg.sender != player1 && msg.sender != player2,\"You can't play as both players\");\n        \n        require(player1 == address(0) || player2 == address(0), \"Players limit reached.\");\n        \n        require (msg.value == bidAmount,\"bid 1 ether\");\n    \n        gametype = 1;\n        winner = -1;    \n        getFinalResult = \"\";\n        \n        if (player1 == address(0))\n        {\n                player1 = msg.sender;\n        }\n        else if (player2 == address(0))\n        {\n            player2 = msg.sender;\n        }\n    }\n\n    function commit(bytes32 _hash) public payable isRegistered \n    {\n        /** Encrypts each players initial hands */\n        require(gametype == 1, \"Commit only if you play with player\");\n        \n        if (msg.sender == player1)\n        {\n            require(player1HandHash == bytes32(0),\"Cannot commit twice\"); \n            player1HandHash = _hash;\n        }\n        else if (msg.sender == player2)\n        {\n            require(player2HandHash == bytes32(0),\"Cannot commit twice\");\n            player2HandHash = _hash; \n        }\n    }\n\n    function reveal(string memory _hand, string memory _nonce) public isRegistered isValid(_hand)\n    {\n        \n        if(gametype != -1)\n            require(player1HandHash != bytes32(0) && player2HandHash != bytes32(0), \"Commit before you reveal OR Let the other player commit\");\n        \n\n         if (bytes(player1Hand).length == 0 && bytes(player2Hand).length == 0)\n         {\n            countdownBegins = int(now);\n            if(msg.sender == player2)\n                whowithdrew=1;\n            else\n                whowithdrew=2;\n         }\n        if (msg.sender == player1)\n        {\n            if(gametype != -1)\n                require( calcHash(_hand,_nonce) == player1HandHash, \"Commit violation\");\n            \n            player1Hand = _hand;\n                \n            if(gametype == -1)\n                player2Hand = random(5);\n        }\n        if (msg.sender == player2)\n        {\n            if(gametype != -1)\n                require( calcHash(_hand,_nonce) == player2HandHash, \"Commit violation\");\n            \n            player2Hand = _hand;\n        }\n    }\n\n    \n    function roundResult() public isRegistered returns(string memory)\n    {\n        winner = -1;\n        require(round_no < MAX_ROUND);\n        if (int(now) - countdownBegins > TIMEOUTTIMER)\n        {\n            countdown();\n            return \"Time out\";\n        }\n        require(bytes(player1Hand).length != 0 && bytes(player2Hand).length != 0, \"Both players haven't played.\"); // This will trigger when both players have made a hand\n       \n        round_no++;\n        winner = results[player1Hand][player2Hand];\n        if (winner == 1)\n            player1_points++;\n        else if (winner == 2)\n            player2_points++;\n\n        player1Hand = \"\";\n        player2Hand = \"\";\n        player1HandHash = bytes32(0);\n        player2HandHash = bytes32(0);\n        \n        if(round_no == MAX_ROUND)\n        {\n            if (player1_points == player2_points) \n            {\n                owner.transfer(2*bidAmount); \n                getFinalResult = \"Draw\";\n            }\n            else if (player1_points > player2_points) \n            {\n                player1.transfer(2*bidAmount);\n                getFinalResult = \"Player1 wins\";\n            }\n            else if (player1_points < player2_points) \n            {\n                if(gametype == 1)\n                    player2.transfer(2*bidAmount);\n                getFinalResult = \"Player2 wins\";\n            }\n  \n            player1_points=0;\n            player2_points=0;\n            player1 = address(0);\n            player2 = address(0);\n            round_no = 0;\n            gametype=0;\n        }\n        countdownBegins=INT_MAX;\n        whowithdrew = 0;\n        \n        return getRoundResult();\n    }\n    \n    function getRoundResult() public view returns(string memory)\n    {\n        if(winner == 0)\n        {\n            return \"DRAW\";\n        }\n        if(msg.sender == player1)\n        {\n            if(winner == 1)\n            {\n                return \"YOU WIN\";   \n            }\n            else\n            {\n                return \"YOU LOSE\";\n            }\n        }\n        if(msg.sender == player2)\n        {\n            if(winner == 2)\n            {\n                return \"YOU WIN\";   \n            }\n            else\n            {\n                return \"YOU LOSE\";\n            }\n        }\n        return \"NOT YET PLAYED\";\n    }\n    \n}",
  "sourcePath": "/Users/rajat/Documents/rajat/padhai/pg18/3rd sem/block_chain/Assignments/Assignment1/Stone_Paper_Scissors_Lizard_Spock-solidity-/contracts/SPSLS.sol",
  "compiler": {
    "name": "solc",
    "version": "0.5.11+commit.c082d0b4.Emscripten.clang"
  },
  "schemaVersion": "3.0.16",
  "updatedAt": "2019-11-12T23:15:08.984Z",
  "devdoc": {
    "methods": {}
  },
  "userdoc": {
    "methods": {}
  }
}