{
  "contractName": "SPSLS",
  "abi": [
    {
      "constant": true,
      "inputs": [],
      "name": "round_no",
      "outputs": [
        {
          "internalType": "uint256",
          "name": "",
          "type": "uint256"
        }
      ],
      "payable": false,
      "stateMutability": "view",
      "type": "function"
    },
    {
      "constant": true,
      "inputs": [],
      "name": "player1Hand",
      "outputs": [
        {
          "internalType": "string",
          "name": "",
          "type": "string"
        }
      ],
      "payable": false,
      "stateMutability": "view",
      "type": "function"
    },
    {
      "constant": true,
      "inputs": [],
      "name": "getFinalResult",
      "outputs": [
        {
          "internalType": "string",
          "name": "",
          "type": "string"
        }
      ],
      "payable": false,
      "stateMutability": "view",
      "type": "function"
    },
    {
      "constant": true,
      "inputs": [],
      "name": "player2",
      "outputs": [
        {
          "internalType": "address payable",
          "name": "",
          "type": "address"
        }
      ],
      "payable": false,
      "stateMutability": "view",
      "type": "function"
    },
    {
      "constant": true,
      "inputs": [],
      "name": "player2_points",
      "outputs": [
        {
          "internalType": "uint256",
          "name": "",
          "type": "uint256"
        }
      ],
      "payable": false,
      "stateMutability": "view",
      "type": "function"
    },
    {
      "constant": true,
      "inputs": [],
      "name": "player2Hand",
      "outputs": [
        {
          "internalType": "string",
          "name": "",
          "type": "string"
        }
      ],
      "payable": false,
      "stateMutability": "view",
      "type": "function"
    },
    {
      "constant": true,
      "inputs": [],
      "name": "player2HandHash",
      "outputs": [
        {
          "internalType": "bytes32",
          "name": "",
          "type": "bytes32"
        }
      ],
      "payable": false,
      "stateMutability": "view",
      "type": "function"
    },
    {
      "constant": true,
      "inputs": [],
      "name": "owner",
      "outputs": [
        {
          "internalType": "address payable",
          "name": "",
          "type": "address"
        }
      ],
      "payable": false,
      "stateMutability": "view",
      "type": "function"
    },
    {
      "constant": true,
      "inputs": [],
      "name": "player1HandHash",
      "outputs": [
        {
          "internalType": "bytes32",
          "name": "",
          "type": "bytes32"
        }
      ],
      "payable": false,
      "stateMutability": "view",
      "type": "function"
    },
    {
      "constant": true,
      "inputs": [],
      "name": "player1_points",
      "outputs": [
        {
          "internalType": "uint256",
          "name": "",
          "type": "uint256"
        }
      ],
      "payable": false,
      "stateMutability": "view",
      "type": "function"
    },
    {
      "constant": true,
      "inputs": [],
      "name": "player1",
      "outputs": [
        {
          "internalType": "address payable",
          "name": "",
          "type": "address"
        }
      ],
      "payable": false,
      "stateMutability": "view",
      "type": "function"
    },
    {
      "constant": true,
      "inputs": [],
      "name": "house",
      "outputs": [
        {
          "internalType": "address payable",
          "name": "",
          "type": "address"
        }
      ],
      "payable": false,
      "stateMutability": "view",
      "type": "function"
    },
    {
      "inputs": [],
      "payable": true,
      "stateMutability": "payable",
      "type": "constructor"
    },
    {
      "payable": true,
      "stateMutability": "payable",
      "type": "fallback"
    },
    {
      "constant": false,
      "inputs": [],
      "name": "donateToHouse",
      "outputs": [],
      "payable": true,
      "stateMutability": "payable",
      "type": "function"
    },
    {
      "constant": true,
      "inputs": [],
      "name": "etherInHouse",
      "outputs": [
        {
          "internalType": "uint256",
          "name": "",
          "type": "uint256"
        }
      ],
      "payable": false,
      "stateMutability": "view",
      "type": "function"
    },
    {
      "constant": false,
      "inputs": [],
      "name": "PlayWithBot",
      "outputs": [],
      "payable": true,
      "stateMutability": "payable",
      "type": "function"
    },
    {
      "constant": false,
      "inputs": [],
      "name": "PlayWithPlayer",
      "outputs": [],
      "payable": true,
      "stateMutability": "payable",
      "type": "function"
    },
    {
      "constant": false,
      "inputs": [
        {
          "internalType": "bytes32",
          "name": "_hash",
          "type": "bytes32"
        }
      ],
      "name": "commit",
      "outputs": [],
      "payable": true,
      "stateMutability": "payable",
      "type": "function"
    },
    {
      "constant": false,
      "inputs": [
        {
          "internalType": "string",
          "name": "_hand",
          "type": "string"
        },
        {
          "internalType": "string",
          "name": "_nonce",
          "type": "string"
        }
      ],
      "name": "reveal",
      "outputs": [],
      "payable": false,
      "stateMutability": "nonpayable",
      "type": "function"
    },
    {
      "constant": false,
      "inputs": [],
      "name": "roundResult",
      "outputs": [],
      "payable": false,
      "stateMutability": "nonpayable",
      "type": "function"
    },
    {
      "constant": true,
      "inputs": [],
      "name": "getRoundResult",
      "outputs": [
        {
          "internalType": "string",
          "name": "",
          "type": "string"
        }
      ],
      "payable": false,
      "stateMutability": "view",
      "type": "function"
    }
  ],
  "bytecode": "0x6080604052670de0b6b3a7640000600c557fffffffffffffffffffffffffffffffffffffffffffffffffffffffffffffffff600f5560405180602001604052806000815250601090805190602001906200005b92919062000e86565b5033600360006101000a81548173ffffffffffffffffffffffffffffffffffffffff021916908373ffffffffffffffffffffffffffffffffffffffff16021790555030600460006101000a81548173ffffffffffffffffffffffffffffffffffffffff021916908373ffffffffffffffffffffffffffffffffffffffff1602179055506000600e60006101000a81548160ff021916908360000b60ff1602179055506003600b819055506000600d81905550600060058190555060006006819055506000600160006101000a81548173ffffffffffffffffffffffffffffffffffffffff021916908373ffffffffffffffffffffffffffffffffffffffff1602179055506000600260006101000a81548173ffffffffffffffffffffffffffffffffffffffff021916908373ffffffffffffffffffffffffffffffffffffffff1602179055506040518060200160405280600081525060079080519060200190620001c892919062000e86565b506040518060200160405280600081525060089080519060200190620001f092919062000e86565b506000801b6009819055506000801b600a8190555060008060405180807f30000000000000000000000000000000000000000000000000000000000000008152506001019050908152602001604051809103902060405180807f300000000000000000000000000000000000000000000000000000000000000081525060010190509081526020016040518091039020819055506002600060405180807f30000000000000000000000000000000000000000000000000000000000000008152506001019050908152602001604051809103902060405180807f310000000000000000000000000000000000000000000000000000000000000081525060010190509081526020016040518091039020819055506001600060405180807f30000000000000000000000000000000000000000000000000000000000000008152506001019050908152602001604051809103902060405180807f320000000000000000000000000000000000000000000000000000000000000081525060010190509081526020016040518091039020819055506001600060405180807f30000000000000000000000000000000000000000000000000000000000000008152506001019050908152602001604051809103902060405180807f330000000000000000000000000000000000000000000000000000000000000081525060010190509081526020016040518091039020819055506002600060405180807f30000000000000000000000000000000000000000000000000000000000000008152506001019050908152602001604051809103902060405180807f340000000000000000000000000000000000000000000000000000000000000081525060010190509081526020016040518091039020819055506001600060405180807f31000000000000000000000000000000000000000000000000000000000000008152506001019050908152602001604051809103902060405180807f3000000000000000000000000000000000000000000000000000000000000000815250600101905090815260200160405180910390208190555060008060405180807f31000000000000000000000000000000000000000000000000000000000000008152506001019050908152602001604051809103902060405180807f310000000000000000000000000000000000000000000000000000000000000081525060010190509081526020016040518091039020819055506002600060405180807f31000000000000000000000000000000000000000000000000000000000000008152506001019050908152602001604051809103902060405180807f320000000000000000000000000000000000000000000000000000000000000081525060010190509081526020016040518091039020819055506002600060405180807f31000000000000000000000000000000000000000000000000000000000000008152506001019050908152602001604051809103902060405180807f330000000000000000000000000000000000000000000000000000000000000081525060010190509081526020016040518091039020819055506001600060405180807f31000000000000000000000000000000000000000000000000000000000000008152506001019050908152602001604051809103902060405180807f340000000000000000000000000000000000000000000000000000000000000081525060010190509081526020016040518091039020819055506002600060405180807f32000000000000000000000000000000000000000000000000000000000000008152506001019050908152602001604051809103902060405180807f300000000000000000000000000000000000000000000000000000000000000081525060010190509081526020016040518091039020819055506001600060405180807f32000000000000000000000000000000000000000000000000000000000000008152506001019050908152602001604051809103902060405180807f3100000000000000000000000000000000000000000000000000000000000000815250600101905090815260200160405180910390208190555060008060405180807f32000000000000000000000000000000000000000000000000000000000000008152506001019050908152602001604051809103902060405180807f320000000000000000000000000000000000000000000000000000000000000081525060010190509081526020016040518091039020819055506001600060405180807f32000000000000000000000000000000000000000000000000000000000000008152506001019050908152602001604051809103902060405180807f330000000000000000000000000000000000000000000000000000000000000081525060010190509081526020016040518091039020819055506002600060405180807f32000000000000000000000000000000000000000000000000000000000000008152506001019050908152602001604051809103902060405180807f340000000000000000000000000000000000000000000000000000000000000081525060010190509081526020016040518091039020819055506002600060405180807f33000000000000000000000000000000000000000000000000000000000000008152506001019050908152602001604051809103902060405180807f300000000000000000000000000000000000000000000000000000000000000081525060010190509081526020016040518091039020819055506001600060405180807f33000000000000000000000000000000000000000000000000000000000000008152506001019050908152602001604051809103902060405180807f310000000000000000000000000000000000000000000000000000000000000081525060010190509081526020016040518091039020819055506002600060405180807f33000000000000000000000000000000000000000000000000000000000000008152506001019050908152602001604051809103902060405180807f3200000000000000000000000000000000000000000000000000000000000000815250600101905090815260200160405180910390208190555060008060405180807f33000000000000000000000000000000000000000000000000000000000000008152506001019050908152602001604051809103902060405180807f330000000000000000000000000000000000000000000000000000000000000081525060010190509081526020016040518091039020819055506001600060405180807f33000000000000000000000000000000000000000000000000000000000000008152506001019050908152602001604051809103902060405180807f340000000000000000000000000000000000000000000000000000000000000081525060010190509081526020016040518091039020819055506001600060405180807f34000000000000000000000000000000000000000000000000000000000000008152506001019050908152602001604051809103902060405180807f300000000000000000000000000000000000000000000000000000000000000081525060010190509081526020016040518091039020819055506002600060405180807f34000000000000000000000000000000000000000000000000000000000000008152506001019050908152602001604051809103902060405180807f310000000000000000000000000000000000000000000000000000000000000081525060010190509081526020016040518091039020819055506001600060405180807f34000000000000000000000000000000000000000000000000000000000000008152506001019050908152602001604051809103902060405180807f320000000000000000000000000000000000000000000000000000000000000081525060010190509081526020016040518091039020819055506002600060405180807f34000000000000000000000000000000000000000000000000000000000000008152506001019050908152602001604051809103902060405180807f3300000000000000000000000000000000000000000000000000000000000000815250600101905090815260200160405180910390208190555060008060405180807f34000000000000000000000000000000000000000000000000000000000000008152506001019050908152602001604051809103902060405180807f3400000000000000000000000000000000000000000000000000000000000000815250600101905090815260200160405180910390208190555062000f35565b828054600181600116156101000203166002900490600052602060002090601f016020900481019282601f1062000ec957805160ff191683800117855562000efa565b8280016001018555821562000efa579182015b8281111562000ef957825182559160200191906001019062000edc565b5b50905062000f09919062000f0d565b5090565b62000f3291905b8082111562000f2e57600081600090555060010162000f14565b5090565b90565b612a978062000f456000396000f3fe60806040526004361061011f5760003560e01c806394002c84116100a0578063d30895e411610064578063d30895e414610670578063d37b73d0146106c7578063f14fcbc8146106f2578063f3f1443f14610720578063ff9b3acf1461072a5761011f565b806394002c8414610569578063a7545a57146105f9578063bed4fe0914610624578063c3ad00271461062e578063ccaaa019146106455761011f565b80635e5ecae4116100e75780635e5ecae41461042257806364f220e21461044d5780636648be9e146104dd5780638d11186f146105085780638da5cb5b146105125761011f565b806309ecd0c514610121578063139fa71b1461014c5780633c6e5310146101dc57806359a5f12d1461026c5780635ba1b2c7146102c3575b005b34801561012d57600080fd5b50610136610781565b6040518082815260200191505060405180910390f35b34801561015857600080fd5b50610161610787565b6040518080602001828103825283818151815260200191508051906020019080838360005b838110156101a1578082015181840152602081019050610186565b50505050905090810190601f1680156101ce5780820380516001836020036101000a031916815260200191505b509250505060405180910390f35b3480156101e857600080fd5b506101f1610825565b6040518080602001828103825283818151815260200191508051906020019080838360005b83811015610231578082015181840152602081019050610216565b50505050905090810190601f16801561025e5780820380516001836020036101000a031916815260200191505b509250505060405180910390f35b34801561027857600080fd5b506102816108c3565b604051808273ffffffffffffffffffffffffffffffffffffffff1673ffffffffffffffffffffffffffffffffffffffff16815260200191505060405180910390f35b3480156102cf57600080fd5b50610420600480360360408110156102e657600080fd5b810190808035906020019064010000000081111561030357600080fd5b82018360208201111561031557600080fd5b8035906020019184600183028401116401000000008311171561033757600080fd5b91908080601f016020809104026020016040519081016040528093929190818152602001838380828437600081840152601f19601f8201169050808301925050505050505091929192908035906020019064010000000081111561039a57600080fd5b8201836020820111156103ac57600080fd5b803590602001918460018302840111640100000000831117156103ce57600080fd5b91908080601f016020809104026020016040519081016040528093929190818152602001838380828437600081840152601f19601f8201169050808301925050505050505091929192905050506108e9565b005b34801561042e57600080fd5b50610437610ebe565b6040518082815260200191505060405180910390f35b34801561045957600080fd5b50610462610ec4565b6040518080602001828103825283818151815260200191508051906020019080838360005b838110156104a2578082015181840152602081019050610487565b50505050905090810190601f1680156104cf5780820380516001836020036101000a031916815260200191505b509250505060405180910390f35b3480156104e957600080fd5b506104f2610f62565b6040518082815260200191505060405180910390f35b610510610f68565b005b34801561051e57600080fd5b50610527610fd3565b604051808273ffffffffffffffffffffffffffffffffffffffff1673ffffffffffffffffffffffffffffffffffffffff16815260200191505060405180910390f35b34801561057557600080fd5b5061057e610ff9565b6040518080602001828103825283818151815260200191508051906020019080838360005b838110156105be5780820151818401526020810190506105a3565b50505050905090810190601f1680156105eb5780820380516001836020036101000a031916815260200191505b509250505060405180910390f35b34801561060557600080fd5b5061060e611235565b6040518082815260200191505060405180910390f35b61062c61123b565b005b34801561063a57600080fd5b50610643611600565b005b34801561065157600080fd5b5061065a611cc4565b6040518082815260200191505060405180910390f35b34801561067c57600080fd5b50610685611cca565b604051808273ffffffffffffffffffffffffffffffffffffffff1673ffffffffffffffffffffffffffffffffffffffff16815260200191505060405180910390f35b3480156106d357600080fd5b506106dc611cf0565b6040518082815260200191505060405180910390f35b61071e6004803603602081101561070857600080fd5b8101908080359060200190929190505050611d31565b005b61072861206f565b005b34801561073657600080fd5b5061073f61256e565b604051808273ffffffffffffffffffffffffffffffffffffffff1673ffffffffffffffffffffffffffffffffffffffff16815260200191505060405180910390f35b600d5481565b60078054600181600116156101000203166002900480601f01602080910402602001604051908101604052809291908181526020018280546001816001161561010002031660029004801561081d5780601f106107f25761010080835404028352916020019161081d565b820191906000526020600020905b81548152906001019060200180831161080057829003601f168201915b505050505081565b60108054600181600116156101000203166002900480601f0160208091040260200160405190810160405280929190818152602001828054600181600116156101000203166002900480156108bb5780601f10610890576101008083540402835291602001916108bb565b820191906000526020600020905b81548152906001019060200180831161089e57829003601f168201915b505050505081565b600260009054906101000a900473ffffffffffffffffffffffffffffffffffffffff1681565b600160009054906101000a900473ffffffffffffffffffffffffffffffffffffffff1673ffffffffffffffffffffffffffffffffffffffff163373ffffffffffffffffffffffffffffffffffffffff1614806109925750600260009054906101000a900473ffffffffffffffffffffffffffffffffffffffff1673ffffffffffffffffffffffffffffffffffffffff163373ffffffffffffffffffffffffffffffffffffffff16145b610a04576040517f08c379a000000000000000000000000000000000000000000000000000000000815260040180806020018281038252600b8152602001807f6a6f696e2066697273742100000000000000000000000000000000000000000081525060200191505060405180910390fd5b81610a44816040518060400160405280600181526020017f3000000000000000000000000000000000000000000000000000000000000000815250612594565b80610a8a5750610a89816040518060400160405280600181526020017f3100000000000000000000000000000000000000000000000000000000000000815250612594565b5b80610ad05750610acf816040518060400160405280600181526020017f3200000000000000000000000000000000000000000000000000000000000000815250612594565b5b80610b165750610b15816040518060400160405280600181526020017f3300000000000000000000000000000000000000000000000000000000000000815250612594565b5b80610b5c5750610b5b816040518060400160405280600181526020017f3400000000000000000000000000000000000000000000000000000000000000815250612594565b5b610b6557600080fd5b7fffffffffffffffffffffffffffffffffffffffffffffffffffffffffffffffff600e60009054906101000a900460000b60000b14610c0e576000801b60095414158015610bb857506000801b600a5414155b610c0d576040517f08c379a00000000000000000000000000000000000000000000000000000000081526004018080602001828103825260378152602001806129e26037913960400191505060405180910390fd5b5b600160009054906101000a900473ffffffffffffffffffffffffffffffffffffffff1673ffffffffffffffffffffffffffffffffffffffff163373ffffffffffffffffffffffffffffffffffffffff161415610d91577fffffffffffffffffffffffffffffffffffffffffffffffffffffffffffffffff600e60009054906101000a900460000b60000b14610d1e57600954610caa8484612683565b14610d1d576040517f08c379a00000000000000000000000000000000000000000000000000000000081526004018080602001828103825260108152602001807f436f6d6d69742076696f6c6174696f6e0000000000000000000000000000000081525060200191505060405180910390fd5b5b8260079080519060200190610d3492919061293c565b507fffffffffffffffffffffffffffffffffffffffffffffffffffffffffffffffff600e60009054906101000a900460000b60000b1415610d9057610d796005612752565b60089080519060200190610d8e92919061293c565b505b5b600260009054906101000a900473ffffffffffffffffffffffffffffffffffffffff1673ffffffffffffffffffffffffffffffffffffffff163373ffffffffffffffffffffffffffffffffffffffff161415610eb9577fffffffffffffffffffffffffffffffffffffffffffffffffffffffffffffffff600e60009054906101000a900460000b60000b14610ea157600a54610e2d8484612683565b14610ea0576040517f08c379a00000000000000000000000000000000000000000000000000000000081526004018080602001828103825260108152602001807f436f6d6d69742076696f6c6174696f6e0000000000000000000000000000000081525060200191505060405180910390fd5b5b8260089080519060200190610eb792919061293c565b505b505050565b60065481565b60088054600181600116156101000203166002900480601f016020809104026020016040519081016040528092919081815260200182805460018160011615610100020316600290048015610f5a5780601f10610f2f57610100808354040283529160200191610f5a565b820191906000526020600020905b815481529060010190602001808311610f3d57829003601f168201915b505050505081565b600a5481565b600460009054906101000a900473ffffffffffffffffffffffffffffffffffffffff1673ffffffffffffffffffffffffffffffffffffffff166108fc349081150290604051600060405180830381858888f19350505050158015610fd0573d6000803e3d6000fd5b50565b600360009054906101000a900473ffffffffffffffffffffffffffffffffffffffff1681565b60606000600f541415611043576040518060400160405280600481526020017f44524157000000000000000000000000000000000000000000000000000000008152509050611232565b600160009054906101000a900473ffffffffffffffffffffffffffffffffffffffff1673ffffffffffffffffffffffffffffffffffffffff163373ffffffffffffffffffffffffffffffffffffffff16141561111e576001600f5414156110e1576040518060400160405280600781526020017f594f552057494e000000000000000000000000000000000000000000000000008152509050611232565b6040518060400160405280600881526020017f594f55204c4f53450000000000000000000000000000000000000000000000008152509050611232565b600260009054906101000a900473ffffffffffffffffffffffffffffffffffffffff1673ffffffffffffffffffffffffffffffffffffffff163373ffffffffffffffffffffffffffffffffffffffff1614156111f9576002600f5414156111bc576040518060400160405280600781526020017f594f552057494e000000000000000000000000000000000000000000000000008152509050611232565b6040518060400160405280600881526020017f594f55204c4f53450000000000000000000000000000000000000000000000008152509050611232565b6040518060400160405280600e81526020017f4e4f542059455420504c4159454400000000000000000000000000000000000081525090505b90565b60095481565b6001600e60009054906101000a900460000b60000b14156112c4576040517f08c379a000000000000000000000000000000000000000000000000000000000815260040180806020018281038252600d8152602001807f526f6f6d206e6f7420667265650000000000000000000000000000000000000081525060200191505060405180910390fd5b600073ffffffffffffffffffffffffffffffffffffffff16600160009054906101000a900473ffffffffffffffffffffffffffffffffffffffff1673ffffffffffffffffffffffffffffffffffffffff1614611388576040517f08c379a00000000000000000000000000000000000000000000000000000000081526004018080602001828103825260168152602001807f506c6179657273206c696d697420726561636865642e0000000000000000000081525060200191505060405180910390fd5b600c5434146113ff576040517f08c379a000000000000000000000000000000000000000000000000000000000815260040180806020018281038252600b8152602001807f626964203120657468657200000000000000000000000000000000000000000081525060200191505060405180910390fd5b671bc16d674ec800003073ffffffffffffffffffffffffffffffffffffffff16311015611477576040517f08c379a0000000000000000000000000000000000000000000000000000000008152600401808060200182810382526027815260200180612a3c6027913960400191505060405180910390fd5b7fffffffffffffffffffffffffffffffffffffffffffffffffffffffffffffffff600f8190555060405180602001604052806000815250601090805190602001906114c392919061293c565b50600073ffffffffffffffffffffffffffffffffffffffff16600160009054906101000a900473ffffffffffffffffffffffffffffffffffffffff1673ffffffffffffffffffffffffffffffffffffffff1614156115c05733600160006101000a81548173ffffffffffffffffffffffffffffffffffffffff021916908373ffffffffffffffffffffffffffffffffffffffff160217905550600460009054906101000a900473ffffffffffffffffffffffffffffffffffffffff16600260006101000a81548173ffffffffffffffffffffffffffffffffffffffff021916908373ffffffffffffffffffffffffffffffffffffffff1602179055505b7fffffffffffffffffffffffffffffffffffffffffffffffffffffffffffffffff600e60006101000a81548160ff021916908360000b60ff160217905550565b600160009054906101000a900473ffffffffffffffffffffffffffffffffffffffff1673ffffffffffffffffffffffffffffffffffffffff163373ffffffffffffffffffffffffffffffffffffffff1614806116a95750600260009054906101000a900473ffffffffffffffffffffffffffffffffffffffff1673ffffffffffffffffffffffffffffffffffffffff163373ffffffffffffffffffffffffffffffffffffffff16145b61171b576040517f08c379a000000000000000000000000000000000000000000000000000000000815260040180806020018281038252600b8152602001807f6a6f696e2066697273742100000000000000000000000000000000000000000081525060200191505060405180910390fd5b7fffffffffffffffffffffffffffffffffffffffffffffffffffffffffffffffff600f81905550600b54600d541061175257600080fd5b600060078054600181600116156101000203166002900490501415801561179057506000600880546001816001161561010002031660029004905014155b611802576040517f08c379a000000000000000000000000000000000000000000000000000000000815260040180806020018281038252601c8152602001807f426f746820706c617965727320686176656e277420706c617965642e0000000081525060200191505060405180910390fd5b600d600081548092919060010191905055506000600760405180828054600181600116156101000203166002900480156118735780601f10611851576101008083540402835291820191611873565b820191906000526020600020905b81548152906001019060200180831161185f575b50509150509081526020016040518091039020600860405180828054600181600116156101000203166002900480156118e35780601f106118c15761010080835404028352918201916118e3565b820191906000526020600020905b8154815290600101906020018083116118cf575b5050915050908152602001604051809103902054600f819055506001600f54141561191f5760056000815480929190600101919050555061193e565b6002600f54141561193d576006600081548092919060010191905055505b5b604051806020016040528060008152506007908051906020019061196392919061293c565b50604051806020016040528060008152506008908051906020019061198992919061293c565b506000801b6009819055506000801b600a81905550600b54600d541415611cc2576006546005541415611a7557600360009054906101000a900473ffffffffffffffffffffffffffffffffffffffff1673ffffffffffffffffffffffffffffffffffffffff166108fc600c546002029081150290604051600060405180830381858888f19350505050158015611a23573d6000803e3d6000fd5b506040518060400160405280600481526020017f447261770000000000000000000000000000000000000000000000000000000081525060109080519060200190611a6f92919061293c565b50611c25565b6006546005541115611b4057600160009054906101000a900473ffffffffffffffffffffffffffffffffffffffff1673ffffffffffffffffffffffffffffffffffffffff166108fc600c546002029081150290604051600060405180830381858888f19350505050158015611aee573d6000803e3d6000fd5b506040518060400160405280600c81526020017f506c61796572312077696e73000000000000000000000000000000000000000081525060109080519060200190611b3a92919061293c565b50611c24565b6006546005541015611c23576001600e60009054906101000a900460000b60000b1415611bd657600260009054906101000a900473ffffffffffffffffffffffffffffffffffffffff1673ffffffffffffffffffffffffffffffffffffffff166108fc600c546002029081150290604051600060405180830381858888f19350505050158015611bd4573d6000803e3d6000fd5b505b6040518060400160405280600c81526020017f506c61796572322077696e73000000000000000000000000000000000000000081525060109080519060200190611c2192919061293c565b505b5b5b600060058190555060006006819055506000600160006101000a81548173ffffffffffffffffffffffffffffffffffffffff021916908373ffffffffffffffffffffffffffffffffffffffff1602179055506000600260006101000a81548173ffffffffffffffffffffffffffffffffffffffff021916908373ffffffffffffffffffffffffffffffffffffffff1602179055506000600d819055505b565b60055481565b600160009054906101000a900473ffffffffffffffffffffffffffffffffffffffff1681565b6000600460009054906101000a900473ffffffffffffffffffffffffffffffffffffffff1673ffffffffffffffffffffffffffffffffffffffff1631905090565b600160009054906101000a900473ffffffffffffffffffffffffffffffffffffffff1673ffffffffffffffffffffffffffffffffffffffff163373ffffffffffffffffffffffffffffffffffffffff161480611dda5750600260009054906101000a900473ffffffffffffffffffffffffffffffffffffffff1673ffffffffffffffffffffffffffffffffffffffff163373ffffffffffffffffffffffffffffffffffffffff16145b611e4c576040517f08c379a000000000000000000000000000000000000000000000000000000000815260040180806020018281038252600b8152602001807f6a6f696e2066697273742100000000000000000000000000000000000000000081525060200191505060405180910390fd5b6001600e60009054906101000a900460000b60000b14611eb7576040517f08c379a0000000000000000000000000000000000000000000000000000000008152600401808060200182810382526023815260200180612a196023913960400191505060405180910390fd5b600160009054906101000a900473ffffffffffffffffffffffffffffffffffffffff1673ffffffffffffffffffffffffffffffffffffffff163373ffffffffffffffffffffffffffffffffffffffff161415611f93576000801b60095414611f87576040517f08c379a00000000000000000000000000000000000000000000000000000000081526004018080602001828103825260138152602001807f43616e6e6f7420636f6d6d69742074776963650000000000000000000000000081525060200191505060405180910390fd5b8060098190555061206c565b600260009054906101000a900473ffffffffffffffffffffffffffffffffffffffff1673ffffffffffffffffffffffffffffffffffffffff163373ffffffffffffffffffffffffffffffffffffffff16141561206b576000801b600a5414612063576040517f08c379a00000000000000000000000000000000000000000000000000000000081526004018080602001828103825260138152602001807f43616e6e6f7420636f6d6d69742074776963650000000000000000000000000081525060200191505060405180910390fd5b80600a819055505b5b50565b7fffffffffffffffffffffffffffffffffffffffffffffffffffffffffffffffff600e60009054906101000a900460000b60000b1415612117576040517f08c379a000000000000000000000000000000000000000000000000000000000815260040180806020018281038252600d8152602001807f526f6f6d206e6f7420667265650000000000000000000000000000000000000081525060200191505060405180910390fd5b600160009054906101000a900473ffffffffffffffffffffffffffffffffffffffff1673ffffffffffffffffffffffffffffffffffffffff163373ffffffffffffffffffffffffffffffffffffffff16141580156121c35750600260009054906101000a900473ffffffffffffffffffffffffffffffffffffffff1673ffffffffffffffffffffffffffffffffffffffff163373ffffffffffffffffffffffffffffffffffffffff1614155b612235576040517f08c379a000000000000000000000000000000000000000000000000000000000815260040180806020018281038252601e8152602001807f596f752063616e277420706c617920617320626f746820706c6179657273000081525060200191505060405180910390fd5b600073ffffffffffffffffffffffffffffffffffffffff16600160009054906101000a900473ffffffffffffffffffffffffffffffffffffffff1673ffffffffffffffffffffffffffffffffffffffff1614806122e05750600073ffffffffffffffffffffffffffffffffffffffff16600260009054906101000a900473ffffffffffffffffffffffffffffffffffffffff1673ffffffffffffffffffffffffffffffffffffffff16145b612352576040517f08c379a00000000000000000000000000000000000000000000000000000000081526004018080602001828103825260168152602001807f506c6179657273206c696d697420726561636865642e0000000000000000000081525060200191505060405180910390fd5b600c5434146123c9576040517f08c379a000000000000000000000000000000000000000000000000000000000815260040180806020018281038252600b8152602001807f626964203120657468657200000000000000000000000000000000000000000081525060200191505060405180910390fd5b6001600e60006101000a81548160ff021916908360000b60ff1602179055507fffffffffffffffffffffffffffffffffffffffffffffffffffffffffffffffff600f81905550604051806020016040528060008152506010908051906020019061243492919061293c565b50600073ffffffffffffffffffffffffffffffffffffffff16600160009054906101000a900473ffffffffffffffffffffffffffffffffffffffff1673ffffffffffffffffffffffffffffffffffffffff1614156124d25733600160006101000a81548173ffffffffffffffffffffffffffffffffffffffff021916908373ffffffffffffffffffffffffffffffffffffffff16021790555061256c565b600073ffffffffffffffffffffffffffffffffffffffff16600260009054906101000a900473ffffffffffffffffffffffffffffffffffffffff1673ffffffffffffffffffffffffffffffffffffffff16141561256b5733600260006101000a81548173ffffffffffffffffffffffffffffffffffffffff021916908373ffffffffffffffffffffffffffffffffffffffff1602179055505b5b565b600460009054906101000a900473ffffffffffffffffffffffffffffffffffffffff1681565b6000816040516020018082805190602001908083835b602083106125cd57805182526020820191506020810190506020830392506125aa565b6001836020036101000a03801982511681845116808217855250505050505090500191505060405160208183030381529060405280519060200120836040516020018082805190602001908083835b6020831061263f578051825260208201915060208101905060208303925061261c565b6001836020036101000a0380198251168184511680821785525050505050509050019150506040516020818303038152906040528051906020012014905092915050565b600082826040516020018083805190602001908083835b602083106126bd578051825260208201915060208101905060208303925061269a565b6001836020036101000a03801982511681845116808217855250505050505090500182805190602001908083835b6020831061270e57805182526020820191506020810190506020830392506126eb565b6001836020036101000a0380198251168184511680821785525050505050509050019250505060405160208183030381529060405280519060200120905092915050565b606060008242334244604051602001808581526020018473ffffffffffffffffffffffffffffffffffffffff1673ffffffffffffffffffffffffffffffffffffffff1660601b81526014018381526020018281526020019450505050506040516020818303038152906040528051906020012060001c816127cf57fe5b0690506000811415612819576040518060400160405280600181526020017f3000000000000000000000000000000000000000000000000000000000000000815250915050612937565b6001811415612860576040518060400160405280600181526020017f3100000000000000000000000000000000000000000000000000000000000000815250915050612937565b60028114156128a7576040518060400160405280600181526020017f3200000000000000000000000000000000000000000000000000000000000000815250915050612937565b60038114156128ee576040518060400160405280600181526020017f3300000000000000000000000000000000000000000000000000000000000000815250915050612937565b6004811415612935576040518060400160405280600181526020017f3400000000000000000000000000000000000000000000000000000000000000815250915050612937565b505b919050565b828054600181600116156101000203166002900490600052602060002090601f016020900481019282601f1061297d57805160ff19168380011785556129ab565b828001600101855582156129ab579182015b828111156129aa57825182559160200191906001019061298f565b5b5090506129b891906129bc565b5090565b6129de91905b808211156129da5760008160009055506001016129c2565b5090565b9056fe436f6d6d6974206265666f726520796f752072657665616c204f52204c657420746865206f7468657220706c6179657220636f6d6d6974436f6d6d6974206f6e6c7920696620796f7520706c6179207769746820706c61796572486f75736520697320656d7074792e20446f6e6174652065746865727320746f2020686f757365a265627a7a723158200fd4745883901d0052ef4fd4dc7d42f087fd7ae37c1f65a619d40417fd55f50d64736f6c634300050b0032",
  "source": "pragma solidity 0.5.11;\n\ncontract SPSLS {\n    function () external payable\n    {\n        \n    }\n    mapping (string => mapping(string => int)) results;\n    address payable public player1;\n    address payable public player2;\n    address payable public owner;\n    address payable public house;\n    uint public player1_points;\n    uint public player2_points;\n    string public player1Hand;\n    string public player2Hand;\n    bytes32 public player1HandHash;\n    bytes32 public player2HandHash;\n    uint private MAX_ROUND;\n    uint private bidAmount = 1 ether;\n    uint public round_no;\n    int8 private gametype;\n    int winner = -1;\n    string public getFinalResult = \"\";\n    \n    \n    constructor() public payable \n    {   \n        owner= msg.sender;\n        house = address(this);\n        gametype=0;\n        MAX_ROUND = 3;\n        round_no = 0;\n        \n        player1_points = 0;\n        player2_points = 0;\n        \n        player1 = address(0);\n        player2 = address(0);\n        \n        player1Hand = \"\";\n        player2Hand = \"\";\n        player1HandHash = 0;\n        player2HandHash = 0;\n        \n        /** constructor holding results matrix for determining winners */\n        results[\"0\"][\"0\"] = 0;\n        results[\"0\"][\"1\"] = 2;\n        results[\"0\"][\"2\"] = 1;\n        results[\"0\"][\"3\"] = 1;\n        results[\"0\"][\"4\"] = 2;\n        results[\"1\"][\"0\"] = 1;\n        results[\"1\"][\"1\"] = 0;\n        results[\"1\"][\"2\"] = 2;\n        results[\"1\"][\"3\"] = 2;\n        results[\"1\"][\"4\"] = 1;\n        results[\"2\"][\"0\"] = 2;\n        results[\"2\"][\"1\"] = 1;\n        results[\"2\"][\"2\"] = 0;\n        results[\"2\"][\"3\"] = 1;\n        results[\"2\"][\"4\"] = 2;\n        results[\"3\"][\"0\"] = 2;\n        results[\"3\"][\"1\"] = 1;\n        results[\"3\"][\"2\"] = 2;\n        results[\"3\"][\"3\"] = 0;\n        results[\"3\"][\"4\"] = 1;\n        results[\"4\"][\"0\"] = 1;\n        results[\"4\"][\"1\"] = 2;\n        results[\"4\"][\"2\"] = 1;\n        results[\"4\"][\"3\"] = 2;\n        results[\"4\"][\"4\"] = 0;\n    }\n    \n    \n    \n    /* Validation Modifiers */\n    modifier isRegistered() { \n        /** makes sure a player is already registered */\n        require (msg.sender == player1 || msg.sender == player2,\"join first!\");\n        _;\n    }\n\n    modifier isValid(string memory hand) {\n        /** string validation for encrypt */\n        require (compareStrings(hand,\"0\") || compareStrings(hand,\"1\") || compareStrings(hand,\"2\")|| compareStrings(hand,\"3\")|| compareStrings(hand,\"4\"));\n        _;\n    }\n    \n    \n    \n    \n    \n    \n    \n    /* utily functions */\n    function compareStrings (string memory a, string memory b) private pure returns (bool)\n    {\n        return keccak256(abi.encodePacked(a)) == keccak256(abi.encodePacked(b));\n    }\n\n    function calcHash(string memory a, string memory b) private pure returns (bytes32 x)\n    {\n        return keccak256(abi.encodePacked(a,b));\n    }\n    \n    function random(uint _range) private view returns (string memory) \n    {\n        uint randomnumber = uint(keccak256(abi.encodePacked(now, msg.sender, block.timestamp, block.difficulty))) % _range;\n        if(randomnumber==0) return \"0\";\n        if(randomnumber==1) return \"1\";\n        if(randomnumber==2) return \"2\";\n        if(randomnumber==3) return \"3\";\n        if(randomnumber==4) return \"4\";\n    }\n\n    function donateToHouse() public payable\n    {\n        house.transfer(msg.value); \n    }\n    \n    function etherInHouse() public view returns(uint)\n    {\n        return house.balance;\n    }\n \n    \n    \n    \n    \n    \n    /* Main functions*/\n    function PlayWithBot() external payable\n    {\n        require(gametype != 1, \"Room not free\");\n        \n        require(player1 == address(0), \"Players limit reached.\");\n        \n        require (msg.value == bidAmount,\"bid 1 ether\");\n    \n        require(address(this).balance >= 2 ether, \"House is empty. Donate ethers to  house\");\n    \n        winner = -1;    \n        getFinalResult = \"\";\n        \n        if(player1 == address(0))\n        {\n            player1 = msg.sender;\n            player2 = house;\n        }\n        gametype = -1;\n    }\n    \n    function PlayWithPlayer() public payable\n    {\n        /** initial registration. first player to register is player1, second player to register is player2 */\n        require(gametype != -1, \"Room not free\");\n\n        require (msg.sender != player1 && msg.sender != player2,\"You can't play as both players\");\n        \n        require(player1 == address(0) || player2 == address(0), \"Players limit reached.\");\n        \n        require (msg.value == bidAmount,\"bid 1 ether\");\n    \n        gametype = 1;\n        winner = -1;    \n        getFinalResult = \"\";\n        \n        if (player1 == address(0))\n        {\n            player1 = msg.sender;\n        }\n        else if (player2 == address(0))\n        {\n            player2 = msg.sender;\n        }\n    }\n\n    function commit(bytes32 _hash) public payable isRegistered \n    {\n        /** Encrypts each players initial hands */\n        require(gametype == 1, \"Commit only if you play with player\");\n        \n        if (msg.sender == player1)\n        {\n            require(player1HandHash == 0,\"Cannot commit twice\"); \n            player1HandHash = _hash;\n        }\n        else if (msg.sender == player2)\n        {\n            require(player2HandHash == 0,\"Cannot commit twice\");\n            player2HandHash = _hash; \n        }\n    }\n\n    function reveal(string memory _hand, string memory _nonce) public isRegistered isValid(_hand)\n    {\n        if(gametype != -1)\n            require(player1HandHash != 0 && player2HandHash != 0, \"Commit before you reveal OR Let the other player commit\");\n        \n        if (msg.sender == player1)\n        {\n            if(gametype != -1)\n                require( calcHash(_hand,_nonce) == player1HandHash, \"Commit violation\");\n            \n            player1Hand = _hand;\n                \n            if(gametype == -1)\n                player2Hand = random(5);\n        }\n        if (msg.sender == player2)\n        {\n            if(gametype != -1)\n                require( calcHash(_hand,_nonce) == player2HandHash, \"Commit violation\");\n            \n            player2Hand = _hand;\n        }\n    }\n\n    function roundResult() public  isRegistered\n    {\n        winner = -1;\n        require(round_no < MAX_ROUND);\n       \n        require(bytes(player1Hand).length != 0 && bytes(player2Hand).length != 0, \"Both players haven't played.\"); // This will trigger when both players have made a hand\n       \n        round_no++;\n        winner = results[player1Hand][player2Hand];\n        if (winner == 1)\n            player1_points++;\n        else if (winner == 2)\n            player2_points++;\n\n        player1Hand = \"\";\n        player2Hand = \"\";\n        player1HandHash = 0;\n        player2HandHash = 0;\n        \n        if(round_no == MAX_ROUND)\n        {\n            if (player1_points == player2_points) \n            {\n                owner.transfer(2*bidAmount); \n                getFinalResult = \"Draw\";\n            }\n            else if (player1_points > player2_points) \n            {\n                player1.transfer(2*bidAmount);\n                getFinalResult = \"Player1 wins\";\n            }\n            else if (player1_points < player2_points) \n            {\n                if(gametype == 1)\n                    player2.transfer(2*bidAmount);\n                getFinalResult = \"Player2 wins\";\n            }\n  \n            player1_points=0;\n            player2_points=0;\n            player1 = address(0);\n            player2 = address(0);\n            round_no = 0;\n        }\n\n    }\n    \n    function getRoundResult() public view returns(string memory)\n    {\n        if(winner == 0)\n        {\n            return \"DRAW\";\n        }\n        if(msg.sender == player1)\n        {\n            if(winner == 1)\n            {\n                return \"YOU WIN\";   \n            }\n            else\n            {\n                return \"YOU LOSE\";\n            }\n        }\n        if(msg.sender == player2)\n        {\n            if(winner == 2)\n            {\n                return \"YOU WIN\";   \n            }\n            else\n            {\n                return \"YOU LOSE\";\n            }\n        }\n        return \"NOT YET PLAYED\";\n    }\n    \n}",
  "sourcePath": "/Users/red/Documents/rajat/padhai/pg18/3rd sem/block_chain/GitRepo/Stone_Paper_Scissors_Lizard_Spock-solidity-/contracts/SPSLS_V2.sol",
  "compiler": {
    "name": "solc",
    "version": "0.5.11+commit.c082d0b4.Emscripten.clang"
  },
  "schemaVersion": "3.0.16",
  "updatedAt": "2019-09-17T12:01:36.047Z",
  "devdoc": {
    "methods": {}
  },
  "userdoc": {
    "methods": {}
  }
}