{
  "contractName": "SPSLS",
  "abi": [
    {
      "constant": true,
      "inputs": [],
      "name": "round_no",
      "outputs": [
        {
          "internalType": "uint256",
          "name": "",
          "type": "uint256"
        }
      ],
      "payable": false,
      "stateMutability": "view",
      "type": "function"
    },
    {
      "constant": true,
      "inputs": [],
      "name": "player1Hand",
      "outputs": [
        {
          "internalType": "string",
          "name": "",
          "type": "string"
        }
      ],
      "payable": false,
      "stateMutability": "view",
      "type": "function"
    },
    {
      "constant": true,
      "inputs": [],
      "name": "whowithdrew",
      "outputs": [
        {
          "internalType": "int8",
          "name": "",
          "type": "int8"
        }
      ],
      "payable": false,
      "stateMutability": "view",
      "type": "function"
    },
    {
      "constant": true,
      "inputs": [],
      "name": "getFinalResult",
      "outputs": [
        {
          "internalType": "string",
          "name": "",
          "type": "string"
        }
      ],
      "payable": false,
      "stateMutability": "view",
      "type": "function"
    },
    {
      "constant": true,
      "inputs": [],
      "name": "gametype",
      "outputs": [
        {
          "internalType": "int8",
          "name": "",
          "type": "int8"
        }
      ],
      "payable": false,
      "stateMutability": "view",
      "type": "function"
    },
    {
      "constant": true,
      "inputs": [],
      "name": "player2",
      "outputs": [
        {
          "internalType": "address payable",
          "name": "",
          "type": "address"
        }
      ],
      "payable": false,
      "stateMutability": "view",
      "type": "function"
    },
    {
      "constant": true,
      "inputs": [],
      "name": "player2_points",
      "outputs": [
        {
          "internalType": "uint256",
          "name": "",
          "type": "uint256"
        }
      ],
      "payable": false,
      "stateMutability": "view",
      "type": "function"
    },
    {
      "constant": true,
      "inputs": [],
      "name": "player2Hand",
      "outputs": [
        {
          "internalType": "string",
          "name": "",
          "type": "string"
        }
      ],
      "payable": false,
      "stateMutability": "view",
      "type": "function"
    },
    {
      "constant": true,
      "inputs": [],
      "name": "player2HandHash",
      "outputs": [
        {
          "internalType": "bytes32",
          "name": "",
          "type": "bytes32"
        }
      ],
      "payable": false,
      "stateMutability": "view",
      "type": "function"
    },
    {
      "constant": true,
      "inputs": [],
      "name": "owner",
      "outputs": [
        {
          "internalType": "address payable",
          "name": "",
          "type": "address"
        }
      ],
      "payable": false,
      "stateMutability": "view",
      "type": "function"
    },
    {
      "constant": true,
      "inputs": [],
      "name": "player1HandHash",
      "outputs": [
        {
          "internalType": "bytes32",
          "name": "",
          "type": "bytes32"
        }
      ],
      "payable": false,
      "stateMutability": "view",
      "type": "function"
    },
    {
      "constant": true,
      "inputs": [],
      "name": "player1_points",
      "outputs": [
        {
          "internalType": "uint256",
          "name": "",
          "type": "uint256"
        }
      ],
      "payable": false,
      "stateMutability": "view",
      "type": "function"
    },
    {
      "constant": true,
      "inputs": [],
      "name": "player1",
      "outputs": [
        {
          "internalType": "address payable",
          "name": "",
          "type": "address"
        }
      ],
      "payable": false,
      "stateMutability": "view",
      "type": "function"
    },
    {
      "constant": true,
      "inputs": [],
      "name": "countdownBegins",
      "outputs": [
        {
          "internalType": "uint256",
          "name": "",
          "type": "uint256"
        }
      ],
      "payable": false,
      "stateMutability": "view",
      "type": "function"
    },
    {
      "constant": true,
      "inputs": [],
      "name": "house",
      "outputs": [
        {
          "internalType": "address payable",
          "name": "",
          "type": "address"
        }
      ],
      "payable": false,
      "stateMutability": "view",
      "type": "function"
    },
    {
      "inputs": [],
      "payable": true,
      "stateMutability": "payable",
      "type": "constructor"
    },
    {
      "payable": true,
      "stateMutability": "payable",
      "type": "fallback"
    },
    {
      "constant": false,
      "inputs": [],
      "name": "donateToHouse",
      "outputs": [],
      "payable": true,
      "stateMutability": "payable",
      "type": "function"
    },
    {
      "constant": true,
      "inputs": [],
      "name": "etherInHouse",
      "outputs": [
        {
          "internalType": "uint256",
          "name": "",
          "type": "uint256"
        }
      ],
      "payable": false,
      "stateMutability": "view",
      "type": "function"
    },
    {
      "constant": false,
      "inputs": [],
      "name": "withdraw",
      "outputs": [],
      "payable": false,
      "stateMutability": "nonpayable",
      "type": "function"
    },
    {
      "constant": false,
      "inputs": [],
      "name": "PlayWithBot",
      "outputs": [],
      "payable": true,
      "stateMutability": "payable",
      "type": "function"
    },
    {
      "constant": false,
      "inputs": [],
      "name": "PlayWithPlayer",
      "outputs": [],
      "payable": true,
      "stateMutability": "payable",
      "type": "function"
    },
    {
      "constant": false,
      "inputs": [
        {
          "internalType": "bytes32",
          "name": "_hash",
          "type": "bytes32"
        }
      ],
      "name": "commit",
      "outputs": [],
      "payable": true,
      "stateMutability": "payable",
      "type": "function"
    },
    {
      "constant": false,
      "inputs": [
        {
          "internalType": "string",
          "name": "_hand",
          "type": "string"
        },
        {
          "internalType": "string",
          "name": "_nonce",
          "type": "string"
        }
      ],
      "name": "reveal",
      "outputs": [],
      "payable": false,
      "stateMutability": "nonpayable",
      "type": "function"
    },
    {
      "constant": false,
      "inputs": [],
      "name": "roundResult",
      "outputs": [],
      "payable": false,
      "stateMutability": "nonpayable",
      "type": "function"
    },
    {
      "constant": true,
      "inputs": [],
      "name": "getRoundResult",
      "outputs": [
        {
          "internalType": "string",
          "name": "",
          "type": "string"
        }
      ],
      "payable": false,
      "stateMutability": "view",
      "type": "function"
    }
  ],
  "bytecode": "0x6080604052670de0b6b3a7640000600c557fffffffffffffffffffffffffffffffffffffffffffffffffffffffffffffffff600f5560405180602001604052806000815250601090805190602001906200005b92919062000eb5565b50600a601155620f42406000190360125533600360006101000a81548173ffffffffffffffffffffffffffffffffffffffff021916908373ffffffffffffffffffffffffffffffffffffffff16021790555030600460006101000a81548173ffffffffffffffffffffffffffffffffffffffff021916908373ffffffffffffffffffffffffffffffffffffffff1602179055506000600e60006101000a81548160ff021916908360000b60ff1602179055506000600e60016101000a81548160ff021916908360000b60ff1602179055506003600b819055506000600d81905550600060058190555060006006819055506000600160006101000a81548173ffffffffffffffffffffffffffffffffffffffff021916908373ffffffffffffffffffffffffffffffffffffffff1602179055506000600260006101000a81548173ffffffffffffffffffffffffffffffffffffffff021916908373ffffffffffffffffffffffffffffffffffffffff1602179055506040518060200160405280600081525060079080519060200190620001f792919062000eb5565b5060405180602001604052806000815250600890805190602001906200021f92919062000eb5565b506000801b6009819055506000801b600a8190555060008060405180807f30000000000000000000000000000000000000000000000000000000000000008152506001019050908152602001604051809103902060405180807f300000000000000000000000000000000000000000000000000000000000000081525060010190509081526020016040518091039020819055506002600060405180807f30000000000000000000000000000000000000000000000000000000000000008152506001019050908152602001604051809103902060405180807f310000000000000000000000000000000000000000000000000000000000000081525060010190509081526020016040518091039020819055506001600060405180807f30000000000000000000000000000000000000000000000000000000000000008152506001019050908152602001604051809103902060405180807f320000000000000000000000000000000000000000000000000000000000000081525060010190509081526020016040518091039020819055506001600060405180807f30000000000000000000000000000000000000000000000000000000000000008152506001019050908152602001604051809103902060405180807f330000000000000000000000000000000000000000000000000000000000000081525060010190509081526020016040518091039020819055506002600060405180807f30000000000000000000000000000000000000000000000000000000000000008152506001019050908152602001604051809103902060405180807f340000000000000000000000000000000000000000000000000000000000000081525060010190509081526020016040518091039020819055506001600060405180807f31000000000000000000000000000000000000000000000000000000000000008152506001019050908152602001604051809103902060405180807f3000000000000000000000000000000000000000000000000000000000000000815250600101905090815260200160405180910390208190555060008060405180807f31000000000000000000000000000000000000000000000000000000000000008152506001019050908152602001604051809103902060405180807f310000000000000000000000000000000000000000000000000000000000000081525060010190509081526020016040518091039020819055506002600060405180807f31000000000000000000000000000000000000000000000000000000000000008152506001019050908152602001604051809103902060405180807f320000000000000000000000000000000000000000000000000000000000000081525060010190509081526020016040518091039020819055506002600060405180807f31000000000000000000000000000000000000000000000000000000000000008152506001019050908152602001604051809103902060405180807f330000000000000000000000000000000000000000000000000000000000000081525060010190509081526020016040518091039020819055506001600060405180807f31000000000000000000000000000000000000000000000000000000000000008152506001019050908152602001604051809103902060405180807f340000000000000000000000000000000000000000000000000000000000000081525060010190509081526020016040518091039020819055506002600060405180807f32000000000000000000000000000000000000000000000000000000000000008152506001019050908152602001604051809103902060405180807f300000000000000000000000000000000000000000000000000000000000000081525060010190509081526020016040518091039020819055506001600060405180807f32000000000000000000000000000000000000000000000000000000000000008152506001019050908152602001604051809103902060405180807f3100000000000000000000000000000000000000000000000000000000000000815250600101905090815260200160405180910390208190555060008060405180807f32000000000000000000000000000000000000000000000000000000000000008152506001019050908152602001604051809103902060405180807f320000000000000000000000000000000000000000000000000000000000000081525060010190509081526020016040518091039020819055506001600060405180807f32000000000000000000000000000000000000000000000000000000000000008152506001019050908152602001604051809103902060405180807f330000000000000000000000000000000000000000000000000000000000000081525060010190509081526020016040518091039020819055506002600060405180807f32000000000000000000000000000000000000000000000000000000000000008152506001019050908152602001604051809103902060405180807f340000000000000000000000000000000000000000000000000000000000000081525060010190509081526020016040518091039020819055506002600060405180807f33000000000000000000000000000000000000000000000000000000000000008152506001019050908152602001604051809103902060405180807f300000000000000000000000000000000000000000000000000000000000000081525060010190509081526020016040518091039020819055506001600060405180807f33000000000000000000000000000000000000000000000000000000000000008152506001019050908152602001604051809103902060405180807f310000000000000000000000000000000000000000000000000000000000000081525060010190509081526020016040518091039020819055506002600060405180807f33000000000000000000000000000000000000000000000000000000000000008152506001019050908152602001604051809103902060405180807f3200000000000000000000000000000000000000000000000000000000000000815250600101905090815260200160405180910390208190555060008060405180807f33000000000000000000000000000000000000000000000000000000000000008152506001019050908152602001604051809103902060405180807f330000000000000000000000000000000000000000000000000000000000000081525060010190509081526020016040518091039020819055506001600060405180807f33000000000000000000000000000000000000000000000000000000000000008152506001019050908152602001604051809103902060405180807f340000000000000000000000000000000000000000000000000000000000000081525060010190509081526020016040518091039020819055506001600060405180807f34000000000000000000000000000000000000000000000000000000000000008152506001019050908152602001604051809103902060405180807f300000000000000000000000000000000000000000000000000000000000000081525060010190509081526020016040518091039020819055506002600060405180807f34000000000000000000000000000000000000000000000000000000000000008152506001019050908152602001604051809103902060405180807f310000000000000000000000000000000000000000000000000000000000000081525060010190509081526020016040518091039020819055506001600060405180807f34000000000000000000000000000000000000000000000000000000000000008152506001019050908152602001604051809103902060405180807f320000000000000000000000000000000000000000000000000000000000000081525060010190509081526020016040518091039020819055506002600060405180807f34000000000000000000000000000000000000000000000000000000000000008152506001019050908152602001604051809103902060405180807f3300000000000000000000000000000000000000000000000000000000000000815250600101905090815260200160405180910390208190555060008060405180807f34000000000000000000000000000000000000000000000000000000000000008152506001019050908152602001604051809103902060405180807f3400000000000000000000000000000000000000000000000000000000000000815250600101905090815260200160405180910390208190555062000f64565b828054600181600116156101000203166002900490600052602060002090601f016020900481019282601f1062000ef857805160ff191683800117855562000f29565b8280016001018555821562000f29579182015b8281111562000f2857825182559160200191906001019062000f0b565b5b50905062000f38919062000f3c565b5090565b62000f6191905b8082111562000f5d57600081600090555060010162000f43565b5090565b90565b61332d8062000f746000396000f3fe60806040526004361061014b5760003560e01c80638da5cb5b116100b6578063d30895e41161006f578063d30895e414610715578063d37b73d01461076c578063de4e046f14610797578063f14fcbc8146107c2578063f3f1443f146107f0578063ff9b3acf146107fa5761014b565b80638da5cb5b146105b757806394002c841461060e578063a7545a571461069e578063bed4fe09146106c9578063c3ad0027146106d3578063ccaaa019146106ea5761014b565b806359a5f12d1161010857806359a5f12d146103115780635ba1b2c7146103685780635e5ecae4146104c757806364f220e2146104f25780636648be9e146105825780638d11186f146105ad5761014b565b806309ecd0c51461014d578063139fa71b1461017857806329ae0c14146102085780633c6e5310146102395780633ccfd60b146102c95780634ffc065a146102e0575b005b34801561015957600080fd5b50610162610851565b6040518082815260200191505060405180910390f35b34801561018457600080fd5b5061018d610857565b6040518080602001828103825283818151815260200191508051906020019080838360005b838110156101cd5780820151818401526020810190506101b2565b50505050905090810190601f1680156101fa5780820380516001836020036101000a031916815260200191505b509250505060405180910390f35b34801561021457600080fd5b5061021d6108f5565b604051808260000b60000b815260200191505060405180910390f35b34801561024557600080fd5b5061024e610908565b6040518080602001828103825283818151815260200191508051906020019080838360005b8381101561028e578082015181840152602081019050610273565b50505050905090810190601f1680156102bb5780820380516001836020036101000a031916815260200191505b509250505060405180910390f35b3480156102d557600080fd5b506102de6109a6565b005b3480156102ec57600080fd5b506102f5610d96565b604051808260000b60000b815260200191505060405180910390f35b34801561031d57600080fd5b50610326610da9565b604051808273ffffffffffffffffffffffffffffffffffffffff1673ffffffffffffffffffffffffffffffffffffffff16815260200191505060405180910390f35b34801561037457600080fd5b506104c56004803603604081101561038b57600080fd5b81019080803590602001906401000000008111156103a857600080fd5b8201836020820111156103ba57600080fd5b803590602001918460018302840111640100000000831117156103dc57600080fd5b91908080601f016020809104026020016040519081016040528093929190818152602001838380828437600081840152601f19601f8201169050808301925050505050505091929192908035906020019064010000000081111561043f57600080fd5b82018360208201111561045157600080fd5b8035906020019184600183028401116401000000008311171561047357600080fd5b91908080601f016020809104026020016040519081016040528093929190818152602001838380828437600081840152601f19601f820116905080830192505050505050509192919290505050610dcf565b005b3480156104d357600080fd5b506104dc611487565b6040518082815260200191505060405180910390f35b3480156104fe57600080fd5b5061050761148d565b6040518080602001828103825283818151815260200191508051906020019080838360005b8381101561054757808201518184015260208101905061052c565b50505050905090810190601f1680156105745780820380516001836020036101000a031916815260200191505b509250505060405180910390f35b34801561058e57600080fd5b5061059761152b565b6040518082815260200191505060405180910390f35b6105b5611531565b005b3480156105c357600080fd5b506105cc61159c565b604051808273ffffffffffffffffffffffffffffffffffffffff1673ffffffffffffffffffffffffffffffffffffffff16815260200191505060405180910390f35b34801561061a57600080fd5b506106236115c2565b6040518080602001828103825283818151815260200191508051906020019080838360005b83811015610663578082015181840152602081019050610648565b50505050905090810190601f1680156106905780820380516001836020036101000a031916815260200191505b509250505060405180910390f35b3480156106aa57600080fd5b506106b36117fe565b6040518082815260200191505060405180910390f35b6106d1611804565b005b3480156106df57600080fd5b506106e8611bc9565b005b3480156106f657600080fd5b506106ff6122f5565b6040518082815260200191505060405180910390f35b34801561072157600080fd5b5061072a6122fb565b604051808273ffffffffffffffffffffffffffffffffffffffff1673ffffffffffffffffffffffffffffffffffffffff16815260200191505060405180910390f35b34801561077857600080fd5b50610781612321565b6040518082815260200191505060405180910390f35b3480156107a357600080fd5b506107ac612362565b6040518082815260200191505060405180910390f35b6107ee600480360360208110156107d857600080fd5b8101908080359060200190929190505050612368565b005b6107f86126a6565b005b34801561080657600080fd5b5061080f612ba5565b604051808273ffffffffffffffffffffffffffffffffffffffff1673ffffffffffffffffffffffffffffffffffffffff16815260200191505060405180910390f35b600d5481565b60078054600181600116156101000203166002900480601f0160208091040260200160405190810160405280929190818152602001828054600181600116156101000203166002900480156108ed5780601f106108c2576101008083540402835291602001916108ed565b820191906000526020600020905b8154815290600101906020018083116108d057829003601f168201915b505050505081565b600e60019054906101000a900460000b81565b60108054600181600116156101000203166002900480601f01602080910402602001604051908101604052809291908181526020018280546001816001161561010002031660029004801561099e5780601f106109735761010080835404028352916020019161099e565b820191906000526020600020905b81548152906001019060200180831161098157829003601f168201915b505050505081565b600160009054906101000a900473ffffffffffffffffffffffffffffffffffffffff1673ffffffffffffffffffffffffffffffffffffffff163373ffffffffffffffffffffffffffffffffffffffff161480610a4f5750600260009054906101000a900473ffffffffffffffffffffffffffffffffffffffff1673ffffffffffffffffffffffffffffffffffffffff163373ffffffffffffffffffffffffffffffffffffffff16145b610ac1576040517f08c379a000000000000000000000000000000000000000000000000000000000815260040180806020018281038252600b8152602001807f6a6f696e2066697273742100000000000000000000000000000000000000000081525060200191505060405180910390fd5b600160009054906101000a900473ffffffffffffffffffffffffffffffffffffffff1673ffffffffffffffffffffffffffffffffffffffff163373ffffffffffffffffffffffffffffffffffffffff161415610b8a57600260009054906101000a900473ffffffffffffffffffffffffffffffffffffffff1673ffffffffffffffffffffffffffffffffffffffff166108fc600c546002029081150290604051600060405180830381858888f19350505050158015610b84573d6000803e3d6000fd5b50610c50565b600260009054906101000a900473ffffffffffffffffffffffffffffffffffffffff1673ffffffffffffffffffffffffffffffffffffffff163373ffffffffffffffffffffffffffffffffffffffff161415610c4f57600160009054906101000a900473ffffffffffffffffffffffffffffffffffffffff1673ffffffffffffffffffffffffffffffffffffffff166108fc600c546002029081150290604051600060405180830381858888f19350505050158015610c4d573d6000803e3d6000fd5b505b5b6040518060200160405280600081525060079080519060200190610c759291906131d2565b506040518060200160405280600081525060089080519060200190610c9b9291906131d2565b5060006009819055506000600a81905550600060058190555060006006819055506000600160006101000a81548173ffffffffffffffffffffffffffffffffffffffff021916908373ffffffffffffffffffffffffffffffffffffffff1602179055506000600260006101000a81548173ffffffffffffffffffffffffffffffffffffffff021916908373ffffffffffffffffffffffffffffffffffffffff1602179055506000600d819055506000600e60006101000a81548160ff021916908360000b60ff1602179055506000600e60016101000a81548160ff021916908360000b60ff160217905550620f424060001903601281905550565b600e60009054906101000a900460000b81565b600260009054906101000a900473ffffffffffffffffffffffffffffffffffffffff1681565b600160009054906101000a900473ffffffffffffffffffffffffffffffffffffffff1673ffffffffffffffffffffffffffffffffffffffff163373ffffffffffffffffffffffffffffffffffffffff161480610e785750600260009054906101000a900473ffffffffffffffffffffffffffffffffffffffff1673ffffffffffffffffffffffffffffffffffffffff163373ffffffffffffffffffffffffffffffffffffffff16145b610eea576040517f08c379a000000000000000000000000000000000000000000000000000000000815260040180806020018281038252600b8152602001807f6a6f696e2066697273742100000000000000000000000000000000000000000081525060200191505060405180910390fd5b81610f2a816040518060400160405280600181526020017f3000000000000000000000000000000000000000000000000000000000000000815250612bcb565b80610f705750610f6f816040518060400160405280600181526020017f3100000000000000000000000000000000000000000000000000000000000000815250612bcb565b5b80610fb65750610fb5816040518060400160405280600181526020017f3200000000000000000000000000000000000000000000000000000000000000815250612bcb565b5b80610ffc5750610ffb816040518060400160405280600181526020017f3300000000000000000000000000000000000000000000000000000000000000815250612bcb565b5b806110425750611041816040518060400160405280600181526020017f3400000000000000000000000000000000000000000000000000000000000000815250612bcb565b5b61104b57600080fd5b7fffffffffffffffffffffffffffffffffffffffffffffffffffffffffffffffff600e60009054906101000a900460000b60000b146110f4576000801b6009541415801561109e57506000801b600a5414155b6110f3576040517f08c379a00000000000000000000000000000000000000000000000000000000081526004018080602001828103825260378152602001806132786037913960400191505060405180910390fd5b5b60006007805460018160011615610100020316600290049050148015611130575060006008805460018160011615610100020316600290049050145b156111d75742601281905550600260009054906101000a900473ffffffffffffffffffffffffffffffffffffffff1673ffffffffffffffffffffffffffffffffffffffff163373ffffffffffffffffffffffffffffffffffffffff1614156111b6576001600e60016101000a81548160ff021916908360000b60ff1602179055506111d6565b6002600e60016101000a81548160ff021916908360000b60ff1602179055505b5b600160009054906101000a900473ffffffffffffffffffffffffffffffffffffffff1673ffffffffffffffffffffffffffffffffffffffff163373ffffffffffffffffffffffffffffffffffffffff16141561135a577fffffffffffffffffffffffffffffffffffffffffffffffffffffffffffffffff600e60009054906101000a900460000b60000b146112e7576009546112738484612cba565b146112e6576040517f08c379a00000000000000000000000000000000000000000000000000000000081526004018080602001828103825260108152602001807f436f6d6d69742076696f6c6174696f6e0000000000000000000000000000000081525060200191505060405180910390fd5b5b82600790805190602001906112fd9291906131d2565b507fffffffffffffffffffffffffffffffffffffffffffffffffffffffffffffffff600e60009054906101000a900460000b60000b1415611359576113426005612d89565b600890805190602001906113579291906131d2565b505b5b600260009054906101000a900473ffffffffffffffffffffffffffffffffffffffff1673ffffffffffffffffffffffffffffffffffffffff163373ffffffffffffffffffffffffffffffffffffffff161415611482577fffffffffffffffffffffffffffffffffffffffffffffffffffffffffffffffff600e60009054906101000a900460000b60000b1461146a57600a546113f68484612cba565b14611469576040517f08c379a00000000000000000000000000000000000000000000000000000000081526004018080602001828103825260108152602001807f436f6d6d69742076696f6c6174696f6e0000000000000000000000000000000081525060200191505060405180910390fd5b5b82600890805190602001906114809291906131d2565b505b505050565b60065481565b60088054600181600116156101000203166002900480601f0160208091040260200160405190810160405280929190818152602001828054600181600116156101000203166002900480156115235780601f106114f857610100808354040283529160200191611523565b820191906000526020600020905b81548152906001019060200180831161150657829003601f168201915b505050505081565b600a5481565b600460009054906101000a900473ffffffffffffffffffffffffffffffffffffffff1673ffffffffffffffffffffffffffffffffffffffff166108fc349081150290604051600060405180830381858888f19350505050158015611599573d6000803e3d6000fd5b50565b600360009054906101000a900473ffffffffffffffffffffffffffffffffffffffff1681565b60606000600f54141561160c576040518060400160405280600481526020017f445241570000000000000000000000000000000000000000000000000000000081525090506117fb565b600160009054906101000a900473ffffffffffffffffffffffffffffffffffffffff1673ffffffffffffffffffffffffffffffffffffffff163373ffffffffffffffffffffffffffffffffffffffff1614156116e7576001600f5414156116aa576040518060400160405280600781526020017f594f552057494e0000000000000000000000000000000000000000000000000081525090506117fb565b6040518060400160405280600881526020017f594f55204c4f534500000000000000000000000000000000000000000000000081525090506117fb565b600260009054906101000a900473ffffffffffffffffffffffffffffffffffffffff1673ffffffffffffffffffffffffffffffffffffffff163373ffffffffffffffffffffffffffffffffffffffff1614156117c2576002600f541415611785576040518060400160405280600781526020017f594f552057494e0000000000000000000000000000000000000000000000000081525090506117fb565b6040518060400160405280600881526020017f594f55204c4f534500000000000000000000000000000000000000000000000081525090506117fb565b6040518060400160405280600e81526020017f4e4f542059455420504c4159454400000000000000000000000000000000000081525090505b90565b60095481565b6001600e60009054906101000a900460000b60000b141561188d576040517f08c379a000000000000000000000000000000000000000000000000000000000815260040180806020018281038252600d8152602001807f526f6f6d206e6f7420667265650000000000000000000000000000000000000081525060200191505060405180910390fd5b600073ffffffffffffffffffffffffffffffffffffffff16600160009054906101000a900473ffffffffffffffffffffffffffffffffffffffff1673ffffffffffffffffffffffffffffffffffffffff1614611951576040517f08c379a00000000000000000000000000000000000000000000000000000000081526004018080602001828103825260168152602001807f506c6179657273206c696d697420726561636865642e0000000000000000000081525060200191505060405180910390fd5b600c5434146119c8576040517f08c379a000000000000000000000000000000000000000000000000000000000815260040180806020018281038252600b8152602001807f626964203120657468657200000000000000000000000000000000000000000081525060200191505060405180910390fd5b671bc16d674ec800003073ffffffffffffffffffffffffffffffffffffffff16311015611a40576040517f08c379a00000000000000000000000000000000000000000000000000000000081526004018080602001828103825260278152602001806132d26027913960400191505060405180910390fd5b7fffffffffffffffffffffffffffffffffffffffffffffffffffffffffffffffff600f819055506040518060200160405280600081525060109080519060200190611a8c9291906131d2565b50600073ffffffffffffffffffffffffffffffffffffffff16600160009054906101000a900473ffffffffffffffffffffffffffffffffffffffff1673ffffffffffffffffffffffffffffffffffffffff161415611b895733600160006101000a81548173ffffffffffffffffffffffffffffffffffffffff021916908373ffffffffffffffffffffffffffffffffffffffff160217905550600460009054906101000a900473ffffffffffffffffffffffffffffffffffffffff16600260006101000a81548173ffffffffffffffffffffffffffffffffffffffff021916908373ffffffffffffffffffffffffffffffffffffffff1602179055505b7fffffffffffffffffffffffffffffffffffffffffffffffffffffffffffffffff600e60006101000a81548160ff021916908360000b60ff160217905550565b600160009054906101000a900473ffffffffffffffffffffffffffffffffffffffff1673ffffffffffffffffffffffffffffffffffffffff163373ffffffffffffffffffffffffffffffffffffffff161480611c725750600260009054906101000a900473ffffffffffffffffffffffffffffffffffffffff1673ffffffffffffffffffffffffffffffffffffffff163373ffffffffffffffffffffffffffffffffffffffff16145b611ce4576040517f08c379a000000000000000000000000000000000000000000000000000000000815260040180806020018281038252600b8152602001807f6a6f696e2066697273742100000000000000000000000000000000000000000081525060200191505060405180910390fd5b7fffffffffffffffffffffffffffffffffffffffffffffffffffffffffffffffff600f81905550600b54600d5410611d1b57600080fd5b60115460125401421115611d3657611d31612f73565b6122f3565b6000600780546001816001161561010002031660029004905014158015611d7457506000600880546001816001161561010002031660029004905014155b611de6576040517f08c379a000000000000000000000000000000000000000000000000000000000815260040180806020018281038252601c8152602001807f426f746820706c617965727320686176656e277420706c617965642e0000000081525060200191505060405180910390fd5b600d60008154809291906001019190505550600060076040518082805460018160011615610100020316600290048015611e575780601f10611e35576101008083540402835291820191611e57565b820191906000526020600020905b815481529060010190602001808311611e43575b5050915050908152602001604051809103902060086040518082805460018160011615610100020316600290048015611ec75780601f10611ea5576101008083540402835291820191611ec7565b820191906000526020600020905b815481529060010190602001808311611eb3575b5050915050908152602001604051809103902054600f819055506001600f541415611f0357600560008154809291906001019190505550611f22565b6002600f541415611f21576006600081548092919060010191905055505b5b6040518060200160405280600081525060079080519060200190611f479291906131d2565b506040518060200160405280600081525060089080519060200190611f6d9291906131d2565b506000801b6009819055506000801b600a81905550600b54600d5414156122c557600654600554141561205957600360009054906101000a900473ffffffffffffffffffffffffffffffffffffffff1673ffffffffffffffffffffffffffffffffffffffff166108fc600c546002029081150290604051600060405180830381858888f19350505050158015612007573d6000803e3d6000fd5b506040518060400160405280600481526020017f4472617700000000000000000000000000000000000000000000000000000000815250601090805190602001906120539291906131d2565b50612209565b600654600554111561212457600160009054906101000a900473ffffffffffffffffffffffffffffffffffffffff1673ffffffffffffffffffffffffffffffffffffffff166108fc600c546002029081150290604051600060405180830381858888f193505050501580156120d2573d6000803e3d6000fd5b506040518060400160405280600c81526020017f506c61796572312077696e7300000000000000000000000000000000000000008152506010908051906020019061211e9291906131d2565b50612208565b6006546005541015612207576001600e60009054906101000a900460000b60000b14156121ba57600260009054906101000a900473ffffffffffffffffffffffffffffffffffffffff1673ffffffffffffffffffffffffffffffffffffffff166108fc600c546002029081150290604051600060405180830381858888f193505050501580156121b8573d6000803e3d6000fd5b505b6040518060400160405280600c81526020017f506c61796572322077696e730000000000000000000000000000000000000000815250601090805190602001906122059291906131d2565b505b5b5b600060058190555060006006819055506000600160006101000a81548173ffffffffffffffffffffffffffffffffffffffff021916908373ffffffffffffffffffffffffffffffffffffffff1602179055506000600260006101000a81548173ffffffffffffffffffffffffffffffffffffffff021916908373ffffffffffffffffffffffffffffffffffffffff1602179055506000600d819055506000600e60006101000a81548160ff021916908360000b60ff1602179055505b620f4240600019036012819055506000600e60016101000a81548160ff021916908360000b60ff1602179055505b565b60055481565b600160009054906101000a900473ffffffffffffffffffffffffffffffffffffffff1681565b6000600460009054906101000a900473ffffffffffffffffffffffffffffffffffffffff1673ffffffffffffffffffffffffffffffffffffffff1631905090565b60125481565b600160009054906101000a900473ffffffffffffffffffffffffffffffffffffffff1673ffffffffffffffffffffffffffffffffffffffff163373ffffffffffffffffffffffffffffffffffffffff1614806124115750600260009054906101000a900473ffffffffffffffffffffffffffffffffffffffff1673ffffffffffffffffffffffffffffffffffffffff163373ffffffffffffffffffffffffffffffffffffffff16145b612483576040517f08c379a000000000000000000000000000000000000000000000000000000000815260040180806020018281038252600b8152602001807f6a6f696e2066697273742100000000000000000000000000000000000000000081525060200191505060405180910390fd5b6001600e60009054906101000a900460000b60000b146124ee576040517f08c379a00000000000000000000000000000000000000000000000000000000081526004018080602001828103825260238152602001806132af6023913960400191505060405180910390fd5b600160009054906101000a900473ffffffffffffffffffffffffffffffffffffffff1673ffffffffffffffffffffffffffffffffffffffff163373ffffffffffffffffffffffffffffffffffffffff1614156125ca576000801b600954146125be576040517f08c379a00000000000000000000000000000000000000000000000000000000081526004018080602001828103825260138152602001807f43616e6e6f7420636f6d6d69742074776963650000000000000000000000000081525060200191505060405180910390fd5b806009819055506126a3565b600260009054906101000a900473ffffffffffffffffffffffffffffffffffffffff1673ffffffffffffffffffffffffffffffffffffffff163373ffffffffffffffffffffffffffffffffffffffff1614156126a2576000801b600a541461269a576040517f08c379a00000000000000000000000000000000000000000000000000000000081526004018080602001828103825260138152602001807f43616e6e6f7420636f6d6d69742074776963650000000000000000000000000081525060200191505060405180910390fd5b80600a819055505b5b50565b7fffffffffffffffffffffffffffffffffffffffffffffffffffffffffffffffff600e60009054906101000a900460000b60000b141561274e576040517f08c379a000000000000000000000000000000000000000000000000000000000815260040180806020018281038252600d8152602001807f526f6f6d206e6f7420667265650000000000000000000000000000000000000081525060200191505060405180910390fd5b600160009054906101000a900473ffffffffffffffffffffffffffffffffffffffff1673ffffffffffffffffffffffffffffffffffffffff163373ffffffffffffffffffffffffffffffffffffffff16141580156127fa5750600260009054906101000a900473ffffffffffffffffffffffffffffffffffffffff1673ffffffffffffffffffffffffffffffffffffffff163373ffffffffffffffffffffffffffffffffffffffff1614155b61286c576040517f08c379a000000000000000000000000000000000000000000000000000000000815260040180806020018281038252601e8152602001807f596f752063616e277420706c617920617320626f746820706c6179657273000081525060200191505060405180910390fd5b600073ffffffffffffffffffffffffffffffffffffffff16600160009054906101000a900473ffffffffffffffffffffffffffffffffffffffff1673ffffffffffffffffffffffffffffffffffffffff1614806129175750600073ffffffffffffffffffffffffffffffffffffffff16600260009054906101000a900473ffffffffffffffffffffffffffffffffffffffff1673ffffffffffffffffffffffffffffffffffffffff16145b612989576040517f08c379a00000000000000000000000000000000000000000000000000000000081526004018080602001828103825260168152602001807f506c6179657273206c696d697420726561636865642e0000000000000000000081525060200191505060405180910390fd5b600c543414612a00576040517f08c379a000000000000000000000000000000000000000000000000000000000815260040180806020018281038252600b8152602001807f626964203120657468657200000000000000000000000000000000000000000081525060200191505060405180910390fd5b6001600e60006101000a81548160ff021916908360000b60ff1602179055507fffffffffffffffffffffffffffffffffffffffffffffffffffffffffffffffff600f819055506040518060200160405280600081525060109080519060200190612a6b9291906131d2565b50600073ffffffffffffffffffffffffffffffffffffffff16600160009054906101000a900473ffffffffffffffffffffffffffffffffffffffff1673ffffffffffffffffffffffffffffffffffffffff161415612b095733600160006101000a81548173ffffffffffffffffffffffffffffffffffffffff021916908373ffffffffffffffffffffffffffffffffffffffff160217905550612ba3565b600073ffffffffffffffffffffffffffffffffffffffff16600260009054906101000a900473ffffffffffffffffffffffffffffffffffffffff1673ffffffffffffffffffffffffffffffffffffffff161415612ba25733600260006101000a81548173ffffffffffffffffffffffffffffffffffffffff021916908373ffffffffffffffffffffffffffffffffffffffff1602179055505b5b565b600460009054906101000a900473ffffffffffffffffffffffffffffffffffffffff1681565b6000816040516020018082805190602001908083835b60208310612c045780518252602082019150602081019050602083039250612be1565b6001836020036101000a03801982511681845116808217855250505050505090500191505060405160208183030381529060405280519060200120836040516020018082805190602001908083835b60208310612c765780518252602082019150602081019050602083039250612c53565b6001836020036101000a0380198251168184511680821785525050505050509050019150506040516020818303038152906040528051906020012014905092915050565b600082826040516020018083805190602001908083835b60208310612cf45780518252602082019150602081019050602083039250612cd1565b6001836020036101000a03801982511681845116808217855250505050505090500182805190602001908083835b60208310612d455780518252602082019150602081019050602083039250612d22565b6001836020036101000a0380198251168184511680821785525050505050509050019250505060405160208183030381529060405280519060200120905092915050565b606060008242334244604051602001808581526020018473ffffffffffffffffffffffffffffffffffffffff1673ffffffffffffffffffffffffffffffffffffffff1660601b81526014018381526020018281526020019450505050506040516020818303038152906040528051906020012060001c81612e0657fe5b0690506000811415612e50576040518060400160405280600181526020017f3000000000000000000000000000000000000000000000000000000000000000815250915050612f6e565b6001811415612e97576040518060400160405280600181526020017f3100000000000000000000000000000000000000000000000000000000000000815250915050612f6e565b6002811415612ede576040518060400160405280600181526020017f3200000000000000000000000000000000000000000000000000000000000000815250915050612f6e565b6003811415612f25576040518060400160405280600181526020017f3300000000000000000000000000000000000000000000000000000000000000815250915050612f6e565b6004811415612f6c576040518060400160405280600181526020017f3400000000000000000000000000000000000000000000000000000000000000815250915050612f6e565b505b919050565b6001600e60019054906101000a900460000b60000b141561300157600260009054906101000a900473ffffffffffffffffffffffffffffffffffffffff1673ffffffffffffffffffffffffffffffffffffffff166108fc600c546002029081150290604051600060405180830381858888f19350505050158015612ffb573d6000803e3d6000fd5b5061308c565b6002600e60019054906101000a900460000b60000b141561308b57600160009054906101000a900473ffffffffffffffffffffffffffffffffffffffff1673ffffffffffffffffffffffffffffffffffffffff166108fc600c546002029081150290604051600060405180830381858888f19350505050158015613089573d6000803e3d6000fd5b505b5b60405180602001604052806000815250600790805190602001906130b19291906131d2565b5060405180602001604052806000815250600890805190602001906130d79291906131d2565b5060006009819055506000600a81905550600060058190555060006006819055506000600160006101000a81548173ffffffffffffffffffffffffffffffffffffffff021916908373ffffffffffffffffffffffffffffffffffffffff1602179055506000600260006101000a81548173ffffffffffffffffffffffffffffffffffffffff021916908373ffffffffffffffffffffffffffffffffffffffff1602179055506000600d819055506000600e60006101000a81548160ff021916908360000b60ff1602179055506000600e60016101000a81548160ff021916908360000b60ff160217905550620f424060001903601281905550565b828054600181600116156101000203166002900490600052602060002090601f016020900481019282601f1061321357805160ff1916838001178555613241565b82800160010185558215613241579182015b82811115613240578251825591602001919060010190613225565b5b50905061324e9190613252565b5090565b61327491905b80821115613270576000816000905550600101613258565b5090565b9056fe436f6d6d6974206265666f726520796f752072657665616c204f52204c657420746865206f7468657220706c6179657220636f6d6d6974436f6d6d6974206f6e6c7920696620796f7520706c6179207769746820706c61796572486f75736520697320656d7074792e20446f6e6174652065746865727320746f2020686f757365a265627a7a7231582046bc63acc2d6b6e2e61cec951ce5a1ea86ac665586f7e35958c731500565fc6a64736f6c634300050b0032",
  "source": "pragma solidity 0.5.11;\n\ncontract SPSLS {\n    function () external payable\n    {\n        \n    }\n    mapping (string => mapping(string => int)) results;\n    address payable public player1;\n    address payable public player2;\n    address payable public owner;\n    address payable public house;\n    uint public player1_points;\n    uint public player2_points;\n    string public player1Hand;\n    string public player2Hand;\n    bytes32 public player1HandHash;\n    bytes32 public player2HandHash;\n    uint private MAX_ROUND;\n    uint private bidAmount = 1 ether;\n    uint public round_no;\n    int8 public gametype;\n    int8 public whowithdrew;\n    int winner = -1;\n    string public getFinalResult = \"\";\n    uint256 constant UINT256_MAX = ~uint256(0) - 1000000;\n    uint private TIMEOUTTIMER = 10;\n    uint public countdownBegins=UINT256_MAX;\n    \n    \n    constructor() public payable \n    {   \n        \n        owner= msg.sender;\n        house = address(this);\n        gametype=0;\n        whowithdrew=0;\n        MAX_ROUND = 3;\n        round_no = 0;\n        \n        player1_points = 0;\n        player2_points = 0;\n        \n        player1 = address(0);\n        player2 = address(0);\n        \n        player1Hand = \"\";\n        player2Hand = \"\";\n        player1HandHash = 0;\n        player2HandHash = 0;\n        \n        /** constructor holding results matrix for determining winners */\n        results[\"0\"][\"0\"] = 0;\n        results[\"0\"][\"1\"] = 2;\n        results[\"0\"][\"2\"] = 1;\n        results[\"0\"][\"3\"] = 1;\n        results[\"0\"][\"4\"] = 2;\n        results[\"1\"][\"0\"] = 1;\n        results[\"1\"][\"1\"] = 0;\n        results[\"1\"][\"2\"] = 2;\n        results[\"1\"][\"3\"] = 2;\n        results[\"1\"][\"4\"] = 1;\n        results[\"2\"][\"0\"] = 2;\n        results[\"2\"][\"1\"] = 1;\n        results[\"2\"][\"2\"] = 0;\n        results[\"2\"][\"3\"] = 1;\n        results[\"2\"][\"4\"] = 2;\n        results[\"3\"][\"0\"] = 2;\n        results[\"3\"][\"1\"] = 1;\n        results[\"3\"][\"2\"] = 2;\n        results[\"3\"][\"3\"] = 0;\n        results[\"3\"][\"4\"] = 1;\n        results[\"4\"][\"0\"] = 1;\n        results[\"4\"][\"1\"] = 2;\n        results[\"4\"][\"2\"] = 1;\n        results[\"4\"][\"3\"] = 2;\n        results[\"4\"][\"4\"] = 0;\n    }\n    \n    \n    \n    /* Validation Modifiers */\n    modifier isRegistered() { \n        /** makes sure a player is already registered */\n        require (msg.sender == player1 || msg.sender == player2,\"join first!\");\n        _;\n    }\n\n    modifier isValid(string memory hand) {\n        /** string validation for encrypt */\n        require (compareStrings(hand,\"0\") || compareStrings(hand,\"1\") || compareStrings(hand,\"2\")|| compareStrings(hand,\"3\")|| compareStrings(hand,\"4\"));\n        _;\n    }\n    \n    \n    \n    \n    \n    \n    \n    /* utily functions */\n    function compareStrings (string memory a, string memory b) private pure returns (bool)\n    {\n        return keccak256(abi.encodePacked(a)) == keccak256(abi.encodePacked(b));\n    }\n\n    function calcHash(string memory a, string memory b) private pure returns (bytes32 x)\n    {\n        return keccak256(abi.encodePacked(a,b));\n    }\n    \n    function random(uint _range) private view returns (string memory) \n    {\n        uint randomnumber = uint(keccak256(abi.encodePacked(now, msg.sender, block.timestamp, block.difficulty))) % _range;\n        if(randomnumber==0) return \"0\";\n        if(randomnumber==1) return \"1\";\n        if(randomnumber==2) return \"2\";\n        if(randomnumber==3) return \"3\";\n        if(randomnumber==4) return \"4\";\n    }\n\n    function donateToHouse() public payable\n    {\n        house.transfer(msg.value); \n    }\n    \n    function etherInHouse() public view returns(uint)\n    {\n        return house.balance;\n    }\n    \n    function withdraw() public isRegistered \n    {\n         if (msg.sender==player1)\n                player2.transfer(2*bidAmount);\n            else if (msg.sender==player2)\n                player1.transfer(2*bidAmount);\n\n            /** reset everything ready for the next game */\n            player1Hand = \"\";\n            player2Hand = \"\";\n            player1HandHash = \"\";\n            player2HandHash = \"\";\n            player1_points=0;\n            player2_points=0;\n            player1 = address(0);\n            player2 = address(0);\n            round_no = 0;\n            gametype=0;\n            whowithdrew = 0;\n            countdownBegins=UINT256_MAX;\n    }\n    \n    function countdown() private\n    {\n        if (whowithdrew == 1)\n            player2.transfer(2*bidAmount);\n        else if (whowithdrew == 2)\n            player1.transfer(2*bidAmount);\n        player1Hand = \"\";\n        player2Hand = \"\";\n        player1HandHash = \"\";\n        player2HandHash = \"\";\n        player1_points=0;\n        player2_points=0;\n        player1 = address(0);\n        player2 = address(0);\n        round_no = 0;\n        gametype=0;\n        whowithdrew = 0;\n        countdownBegins=UINT256_MAX;\n    }\n \n    \n    \n    \n    \n    \n    /* Main functions*/\n    function PlayWithBot() external payable\n    {\n        require(gametype != 1, \"Room not free\");\n        \n        require(player1 == address(0), \"Players limit reached.\");\n        \n        require (msg.value == bidAmount,\"bid 1 ether\");\n    \n        require(address(this).balance >= 2 ether, \"House is empty. Donate ethers to  house\");\n    \n        winner = -1;    \n        getFinalResult = \"\";\n        \n        if(player1 == address(0))\n        {\n            player1 = msg.sender;\n            player2 = house;\n        }\n        gametype = -1;\n    }\n    \n    function PlayWithPlayer() public payable\n    {\n        /** initial registration. first player to register is player1, second player to register is player2 */\n        require(gametype != -1, \"Room not free\");\n\n        require (msg.sender != player1 && msg.sender != player2,\"You can't play as both players\");\n        \n        require(player1 == address(0) || player2 == address(0), \"Players limit reached.\");\n        \n        require (msg.value == bidAmount,\"bid 1 ether\");\n    \n        gametype = 1;\n        winner = -1;    \n        getFinalResult = \"\";\n        \n        if (player1 == address(0))\n        {\n            player1 = msg.sender;\n        }\n        else if (player2 == address(0))\n        {\n            player2 = msg.sender;\n        }\n    }\n\n    function commit(bytes32 _hash) public payable isRegistered \n    {\n        /** Encrypts each players initial hands */\n        require(gametype == 1, \"Commit only if you play with player\");\n        \n        if (msg.sender == player1)\n        {\n            require(player1HandHash == 0,\"Cannot commit twice\"); \n            player1HandHash = _hash;\n        }\n        else if (msg.sender == player2)\n        {\n            require(player2HandHash == 0,\"Cannot commit twice\");\n            player2HandHash = _hash; \n        }\n    }\n\n    function reveal(string memory _hand, string memory _nonce) public isRegistered isValid(_hand)\n    {\n        \n        if(gametype != -1)\n            require(player1HandHash != 0 && player2HandHash != 0, \"Commit before you reveal OR Let the other player commit\");\n        \n\n         if (bytes(player1Hand).length == 0 && bytes(player2Hand).length == 0)\n         {\n            countdownBegins = now;\n            if(msg.sender == player2)\n                whowithdrew=1;\n            else\n                whowithdrew=2;\n         }\n        if (msg.sender == player1)\n        {\n            if(gametype != -1)\n                require( calcHash(_hand,_nonce) == player1HandHash, \"Commit violation\");\n            \n            player1Hand = _hand;\n                \n            if(gametype == -1)\n                player2Hand = random(5);\n        }\n        if (msg.sender == player2)\n        {\n            if(gametype != -1)\n                require( calcHash(_hand,_nonce) == player2HandHash, \"Commit violation\");\n            \n            player2Hand = _hand;\n        }\n    }\n\n    \n    function roundResult() public  isRegistered\n    {\n        winner = -1;\n        require(round_no < MAX_ROUND);\n        if (now > countdownBegins + TIMEOUTTIMER)\n        {\n            countdown();\n            return;\n        }\n        require(bytes(player1Hand).length != 0 && bytes(player2Hand).length != 0, \"Both players haven't played.\"); // This will trigger when both players have made a hand\n       \n        round_no++;\n        winner = results[player1Hand][player2Hand];\n        if (winner == 1)\n            player1_points++;\n        else if (winner == 2)\n            player2_points++;\n\n        player1Hand = \"\";\n        player2Hand = \"\";\n        player1HandHash = 0;\n        player2HandHash = 0;\n        \n        if(round_no == MAX_ROUND)\n        {\n            if (player1_points == player2_points) \n            {\n                owner.transfer(2*bidAmount); \n                getFinalResult = \"Draw\";\n            }\n            else if (player1_points > player2_points) \n            {\n                player1.transfer(2*bidAmount);\n                getFinalResult = \"Player1 wins\";\n            }\n            else if (player1_points < player2_points) \n            {\n                if(gametype == 1)\n                    player2.transfer(2*bidAmount);\n                getFinalResult = \"Player2 wins\";\n            }\n  \n            player1_points=0;\n            player2_points=0;\n            player1 = address(0);\n            player2 = address(0);\n            round_no = 0;\n            gametype=0;\n        }\n        countdownBegins=UINT256_MAX;\n        whowithdrew = 0;\n\n    }\n    \n    function getRoundResult() public view returns(string memory)\n    {\n        if(winner == 0)\n        {\n            return \"DRAW\";\n        }\n        if(msg.sender == player1)\n        {\n            if(winner == 1)\n            {\n                return \"YOU WIN\";   \n            }\n            else\n            {\n                return \"YOU LOSE\";\n            }\n        }\n        if(msg.sender == player2)\n        {\n            if(winner == 2)\n            {\n                return \"YOU WIN\";   \n            }\n            else\n            {\n                return \"YOU LOSE\";\n            }\n        }\n        return \"NOT YET PLAYED\";\n    }\n    \n}",
  "sourcePath": "/Users/red/Documents/rajat/padhai/pg18/3rd sem/block_chain/GitRepo/Stone_Paper_Scissors_Lizard_Spock-solidity-/contracts/SPSLS_V2.sol",
  "compiler": {
    "name": "solc",
    "version": "0.5.11+commit.c082d0b4.Emscripten.clang"
  },
  "schemaVersion": "3.0.16",
  "updatedAt": "2019-09-17T16:19:45.996Z",
  "devdoc": {
    "methods": {}
  },
  "userdoc": {
    "methods": {}
  }
}